{
  "_format": "hh-sol-artifact-1",
  "contractName": "VaultAdaptorMK2",
  "sourceName": "contracts/VaultAdaptorMK2.sol",
  "abi": [
    {
      "inputs": [
        {
          "internalType": "address",
          "name": "_token",
          "type": "address"
        },
        {
          "internalType": "uint256",
          "name": "_baseAllowance",
          "type": "uint256"
        },
        {
          "internalType": "address",
          "name": "_bouncer",
          "type": "address"
        }
      ],
      "stateMutability": "nonpayable",
      "type": "constructor"
    },
    {
      "anonymous": false,
      "inputs": [
        {
          "indexed": true,
          "internalType": "address",
          "name": "owner",
          "type": "address"
        },
        {
          "indexed": true,
          "internalType": "address",
          "name": "spender",
          "type": "address"
        },
        {
          "indexed": false,
          "internalType": "uint256",
          "name": "value",
          "type": "uint256"
        }
      ],
      "name": "Approval",
      "type": "event"
    },
    {
      "anonymous": false,
      "inputs": [
        {
          "indexed": true,
          "internalType": "address",
          "name": "user",
          "type": "address"
        }
      ],
      "name": "LogAddToWhitelist",
      "type": "event"
    },
    {
      "anonymous": false,
      "inputs": [
        {
          "indexed": false,
          "internalType": "bool",
          "name": "status",
          "type": "bool"
        }
      ],
      "name": "LogAllowanceStatus",
      "type": "event"
    },
    {
      "anonymous": false,
      "inputs": [
        {
          "indexed": false,
          "internalType": "uint256[]",
          "name": "strategyRetios",
          "type": "uint256[]"
        }
      ],
      "name": "LogDebtRatios",
      "type": "event"
    },
    {
      "anonymous": false,
      "inputs": [
        {
          "indexed": true,
          "internalType": "address",
          "name": "from",
          "type": "address"
        },
        {
          "indexed": false,
          "internalType": "uint256",
          "name": "_amount",
          "type": "uint256"
        },
        {
          "indexed": false,
          "internalType": "uint256",
          "name": "shares",
          "type": "uint256"
        },
        {
          "indexed": false,
          "internalType": "uint256",
          "name": "allowance",
          "type": "uint256"
        }
      ],
      "name": "LogDeposit",
      "type": "event"
    },
    {
      "anonymous": false,
      "inputs": [
        {
          "indexed": false,
          "internalType": "uint256",
          "name": "newLimit",
          "type": "uint256"
        }
      ],
      "name": "LogDepositLimit",
      "type": "event"
    },
    {
      "anonymous": false,
      "inputs": [
        {
          "indexed": false,
          "internalType": "address",
          "name": "parent",
          "type": "address"
        },
        {
          "indexed": false,
          "internalType": "address",
          "name": "child",
          "type": "address"
        },
        {
          "indexed": false,
          "internalType": "uint256",
          "name": "amount",
          "type": "uint256"
        }
      ],
      "name": "LogMigrate",
      "type": "event"
    },
    {
      "anonymous": false,
      "inputs": [
        {
          "indexed": false,
          "internalType": "address",
          "name": "user",
          "type": "address"
        },
        {
          "indexed": false,
          "internalType": "uint256",
          "name": "amount",
          "type": "uint256"
        }
      ],
      "name": "LogNewAllowance",
      "type": "event"
    },
    {
      "anonymous": false,
      "inputs": [
        {
          "indexed": false,
          "internalType": "address",
          "name": "bouncer",
          "type": "address"
        }
      ],
      "name": "LogNewBouncer",
      "type": "event"
    },
    {
      "anonymous": false,
      "inputs": [
        {
          "indexed": true,
          "internalType": "address",
          "name": "strategy",
          "type": "address"
        },
        {
          "indexed": false,
          "internalType": "uint256",
          "name": "debtRatio",
          "type": "uint256"
        }
      ],
      "name": "LogNewDebtRatio",
      "type": "event"
    },
    {
      "anonymous": false,
      "inputs": [
        {
          "indexed": false,
          "internalType": "uint256",
          "name": "factor",
          "type": "uint256"
        }
      ],
      "name": "LogNewReleaseFactor",
      "type": "event"
    },
    {
      "anonymous": false,
      "inputs": [
        {
          "indexed": false,
          "internalType": "address",
          "name": "rewards",
          "type": "address"
        }
      ],
      "name": "LogNewRewards",
      "type": "event"
    },
    {
      "anonymous": false,
      "inputs": [
        {
          "indexed": false,
          "internalType": "bool",
          "name": "loss",
          "type": "bool"
        },
        {
          "indexed": false,
          "internalType": "uint256",
          "name": "change",
          "type": "uint256"
        }
      ],
      "name": "LogNewStrategyHarvest",
      "type": "event"
    },
    {
      "anonymous": false,
      "inputs": [
        {
          "indexed": false,
          "internalType": "uint256",
          "name": "vaultFee",
          "type": "uint256"
        }
      ],
      "name": "LogNewVaultFee",
      "type": "event"
    },
    {
      "anonymous": false,
      "inputs": [
        {
          "indexed": true,
          "internalType": "address",
          "name": "user",
          "type": "address"
        }
      ],
      "name": "LogRemoveFromWhitelist",
      "type": "event"
    },
    {
      "anonymous": false,
      "inputs": [
        {
          "indexed": true,
          "internalType": "address",
          "name": "strategy",
          "type": "address"
        },
        {
          "indexed": false,
          "internalType": "uint256",
          "name": "debtRatio",
          "type": "uint256"
        },
        {
          "indexed": false,
          "internalType": "uint256",
          "name": "minDebtPerHarvest",
          "type": "uint256"
        },
        {
          "indexed": false,
          "internalType": "uint256",
          "name": "maxDebtPerHarvest",
          "type": "uint256"
        }
      ],
      "name": "LogStrategyAdded",
      "type": "event"
    },
    {
      "anonymous": false,
      "inputs": [
        {
          "indexed": true,
          "internalType": "address",
          "name": "strategy",
          "type": "address"
        }
      ],
      "name": "LogStrategyAddedToQueue",
      "type": "event"
    },
    {
      "anonymous": false,
      "inputs": [
        {
          "indexed": true,
          "internalType": "address",
          "name": "newStrategy",
          "type": "address"
        },
        {
          "indexed": true,
          "internalType": "address",
          "name": "oldStrategy",
          "type": "address"
        }
      ],
      "name": "LogStrategyMigrated",
      "type": "event"
    },
    {
      "anonymous": false,
      "inputs": [
        {
          "indexed": true,
          "internalType": "address",
          "name": "strategy",
          "type": "address"
        }
      ],
      "name": "LogStrategyRemovedFromQueue",
      "type": "event"
    },
    {
      "anonymous": false,
      "inputs": [
        {
          "indexed": true,
          "internalType": "address",
          "name": "strategy",
          "type": "address"
        },
        {
          "indexed": false,
          "internalType": "uint256",
          "name": "gain",
          "type": "uint256"
        },
        {
          "indexed": false,
          "internalType": "uint256",
          "name": "loss",
          "type": "uint256"
        },
        {
          "indexed": false,
          "internalType": "uint256",
          "name": "debtPaid",
          "type": "uint256"
        },
        {
          "indexed": false,
          "internalType": "uint256",
          "name": "totalGain",
          "type": "uint256"
        },
        {
          "indexed": false,
          "internalType": "uint256",
          "name": "totalLoss",
          "type": "uint256"
        },
        {
          "indexed": false,
          "internalType": "uint256",
          "name": "totalDebt",
          "type": "uint256"
        },
        {
          "indexed": false,
          "internalType": "uint256",
          "name": "debtAdded",
          "type": "uint256"
        },
        {
          "indexed": false,
          "internalType": "uint256",
          "name": "debtRatio",
          "type": "uint256"
        }
      ],
      "name": "LogStrategyReported",
      "type": "event"
    },
    {
      "anonymous": false,
      "inputs": [
        {
          "indexed": true,
          "internalType": "address",
          "name": "strategy",
          "type": "address"
        }
      ],
      "name": "LogStrategyRevoked",
      "type": "event"
    },
    {
      "anonymous": false,
      "inputs": [
        {
          "indexed": true,
          "internalType": "address",
          "name": "strategy",
          "type": "address"
        },
        {
          "indexed": false,
          "internalType": "bool",
          "name": "status",
          "type": "bool"
        }
      ],
      "name": "LogStrategyStatusUpdate",
      "type": "event"
    },
    {
      "anonymous": false,
      "inputs": [
        {
          "indexed": true,
          "internalType": "address",
          "name": "strategy",
          "type": "address"
        },
        {
          "indexed": false,
          "internalType": "uint256",
          "name": "maxDebtPerHarvest",
          "type": "uint256"
        }
      ],
      "name": "LogStrategyUpdateMaxDebtPerHarvest",
      "type": "event"
    },
    {
      "anonymous": false,
      "inputs": [
        {
          "indexed": true,
          "internalType": "address",
          "name": "strategy",
          "type": "address"
        },
        {
          "indexed": false,
          "internalType": "uint256",
          "name": "minDebtPerHarvest",
          "type": "uint256"
        }
      ],
      "name": "LogStrategyUpdateMinDebtPerHarvest",
      "type": "event"
    },
    {
      "anonymous": false,
      "inputs": [
        {
          "indexed": false,
          "internalType": "address[]",
          "name": "queue",
          "type": "address[]"
        }
      ],
      "name": "LogUpdateWithdrawalQueue",
      "type": "event"
    },
    {
      "anonymous": false,
      "inputs": [
        {
          "indexed": true,
          "internalType": "address",
          "name": "from",
          "type": "address"
        },
        {
          "indexed": false,
          "internalType": "uint256",
          "name": "value",
          "type": "uint256"
        },
        {
          "indexed": false,
          "internalType": "uint256",
          "name": "shares",
          "type": "uint256"
        },
        {
          "indexed": false,
          "internalType": "uint256",
          "name": "totalLoss",
          "type": "uint256"
        },
        {
          "indexed": false,
          "internalType": "uint256",
          "name": "allowance",
          "type": "uint256"
        }
      ],
      "name": "LogWithdrawal",
      "type": "event"
    },
    {
      "anonymous": false,
      "inputs": [
        {
          "indexed": true,
          "internalType": "address",
          "name": "previousOwner",
          "type": "address"
        },
        {
          "indexed": true,
          "internalType": "address",
          "name": "newOwner",
          "type": "address"
        }
      ],
      "name": "OwnershipTransferred",
      "type": "event"
    },
    {
      "anonymous": false,
      "inputs": [
        {
          "indexed": true,
          "internalType": "address",
          "name": "from",
          "type": "address"
        },
        {
          "indexed": true,
          "internalType": "address",
          "name": "to",
          "type": "address"
        },
        {
          "indexed": false,
          "internalType": "uint256",
          "name": "value",
          "type": "uint256"
        }
      ],
      "name": "Transfer",
      "type": "event"
    },
    {
      "inputs": [],
      "name": "BASE_ALLOWANCE",
      "outputs": [
        {
          "internalType": "uint256",
          "name": "",
          "type": "uint256"
        }
      ],
      "stateMutability": "view",
      "type": "function"
    },
    {
      "inputs": [],
      "name": "MAXIMUM_STRATEGIES",
      "outputs": [
        {
          "internalType": "uint256",
          "name": "",
          "type": "uint256"
        }
      ],
      "stateMutability": "view",
      "type": "function"
    },
    {
      "inputs": [
        {
          "internalType": "bool",
          "name": "_status",
          "type": "bool"
        }
      ],
      "name": "activateAllowance",
      "outputs": [],
      "stateMutability": "nonpayable",
      "type": "function"
    },
    {
      "inputs": [],
      "name": "activation",
      "outputs": [
        {
          "internalType": "uint256",
          "name": "",
          "type": "uint256"
        }
      ],
      "stateMutability": "view",
      "type": "function"
    },
    {
      "inputs": [
        {
          "internalType": "address",
          "name": "_strategy",
          "type": "address"
        },
        {
          "internalType": "uint256",
          "name": "_debtRatio",
          "type": "uint256"
        },
        {
          "internalType": "uint256",
          "name": "_minDebtPerHarvest",
          "type": "uint256"
        },
        {
          "internalType": "uint256",
          "name": "_maxDebtPerHarvest",
          "type": "uint256"
        }
      ],
      "name": "addStrategy",
      "outputs": [],
      "stateMutability": "nonpayable",
      "type": "function"
    },
    {
      "inputs": [
        {
          "internalType": "address",
          "name": "_strategy",
          "type": "address"
        }
      ],
      "name": "addStrategyToQueue",
      "outputs": [],
      "stateMutability": "nonpayable",
      "type": "function"
    },
    {
      "inputs": [
        {
          "internalType": "address",
          "name": "user",
          "type": "address"
        }
      ],
      "name": "addToWhitelist",
      "outputs": [],
      "stateMutability": "nonpayable",
      "type": "function"
    },
    {
      "inputs": [
        {
          "internalType": "address",
          "name": "owner",
          "type": "address"
        },
        {
          "internalType": "address",
          "name": "spender",
          "type": "address"
        }
      ],
      "name": "allowance",
      "outputs": [
        {
          "internalType": "uint256",
          "name": "",
          "type": "uint256"
        }
      ],
      "stateMutability": "view",
      "type": "function"
    },
    {
      "inputs": [],
      "name": "allowance",
      "outputs": [
        {
          "internalType": "bool",
          "name": "",
          "type": "bool"
        }
      ],
      "stateMutability": "view",
      "type": "function"
    },
    {
      "inputs": [
        {
          "internalType": "address",
          "name": "spender",
          "type": "address"
        },
        {
          "internalType": "uint256",
          "name": "amount",
          "type": "uint256"
        }
      ],
      "name": "approve",
      "outputs": [
        {
          "internalType": "bool",
          "name": "",
          "type": "bool"
        }
      ],
      "stateMutability": "nonpayable",
      "type": "function"
    },
    {
      "inputs": [
        {
          "internalType": "address",
          "name": "account",
          "type": "address"
        }
      ],
      "name": "balanceOf",
      "outputs": [
        {
          "internalType": "uint256",
          "name": "",
          "type": "uint256"
        }
      ],
      "stateMutability": "view",
      "type": "function"
    },
    {
      "inputs": [],
      "name": "bouncer",
      "outputs": [
        {
          "internalType": "address",
          "name": "",
          "type": "address"
        }
      ],
      "stateMutability": "view",
      "type": "function"
    },
    {
      "inputs": [
        {
          "internalType": "address",
          "name": "",
          "type": "address"
        }
      ],
      "name": "claimed",
      "outputs": [
        {
          "internalType": "bool",
          "name": "",
          "type": "bool"
        }
      ],
      "stateMutability": "view",
      "type": "function"
    },
    {
      "inputs": [],
      "name": "creditAvailable",
      "outputs": [
        {
          "internalType": "uint256",
          "name": "",
          "type": "uint256"
        }
      ],
      "stateMutability": "view",
      "type": "function"
    },
    {
      "inputs": [
        {
          "internalType": "address",
          "name": "_strategy",
          "type": "address"
        }
      ],
      "name": "creditAvailable",
      "outputs": [
        {
          "internalType": "uint256",
          "name": "",
          "type": "uint256"
        }
      ],
      "stateMutability": "view",
      "type": "function"
    },
    {
      "inputs": [
        {
          "internalType": "address",
          "name": "_strategy",
          "type": "address"
        }
      ],
      "name": "debtOutstanding",
      "outputs": [
        {
          "internalType": "uint256",
          "name": "",
          "type": "uint256"
        }
      ],
      "stateMutability": "view",
      "type": "function"
    },
    {
      "inputs": [],
      "name": "debtOutstanding",
      "outputs": [
        {
          "internalType": "uint256",
          "name": "",
          "type": "uint256"
        }
      ],
      "stateMutability": "view",
      "type": "function"
    },
    {
      "inputs": [],
      "name": "debtRatio",
      "outputs": [
        {
          "internalType": "uint256",
          "name": "",
          "type": "uint256"
        }
      ],
      "stateMutability": "view",
      "type": "function"
    },
    {
      "inputs": [],
      "name": "decimals",
      "outputs": [
        {
          "internalType": "uint8",
          "name": "",
          "type": "uint8"
        }
      ],
      "stateMutability": "view",
      "type": "function"
    },
    {
      "inputs": [
        {
          "internalType": "address",
          "name": "spender",
          "type": "address"
        },
        {
          "internalType": "uint256",
          "name": "subtractedValue",
          "type": "uint256"
        }
      ],
      "name": "decreaseAllowance",
      "outputs": [
        {
          "internalType": "bool",
          "name": "",
          "type": "bool"
        }
      ],
      "stateMutability": "nonpayable",
      "type": "function"
    },
    {
      "inputs": [
        {
          "internalType": "uint256",
          "name": "_amount",
          "type": "uint256"
        }
      ],
      "name": "deposit",
      "outputs": [
        {
          "internalType": "uint256",
          "name": "",
          "type": "uint256"
        }
      ],
      "stateMutability": "nonpayable",
      "type": "function"
    },
    {
      "inputs": [],
      "name": "depositLimit",
      "outputs": [
        {
          "internalType": "uint256",
          "name": "",
          "type": "uint256"
        }
      ],
      "stateMutability": "view",
      "type": "function"
    },
    {
      "inputs": [],
      "name": "getPricePerShare",
      "outputs": [
        {
          "internalType": "uint256",
          "name": "",
          "type": "uint256"
        }
      ],
      "stateMutability": "view",
      "type": "function"
    },
    {
      "inputs": [],
      "name": "getStrategiesLength",
      "outputs": [
        {
          "internalType": "uint256",
          "name": "",
          "type": "uint256"
        }
      ],
      "stateMutability": "view",
      "type": "function"
    },
    {
      "inputs": [
        {
          "internalType": "uint256",
          "name": "_index",
          "type": "uint256"
        }
      ],
      "name": "getStrategyAssets",
      "outputs": [
        {
          "internalType": "uint256",
          "name": "amount",
          "type": "uint256"
        }
      ],
      "stateMutability": "view",
      "type": "function"
    },
    {
      "inputs": [
        {
          "internalType": "address",
          "name": "spender",
          "type": "address"
        },
        {
          "internalType": "uint256",
          "name": "addedValue",
          "type": "uint256"
        }
      ],
      "name": "increaseAllowance",
      "outputs": [
        {
          "internalType": "bool",
          "name": "",
          "type": "bool"
        }
      ],
      "stateMutability": "nonpayable",
      "type": "function"
    },
    {
      "inputs": [],
      "name": "lastReport",
      "outputs": [
        {
          "internalType": "uint256",
          "name": "",
          "type": "uint256"
        }
      ],
      "stateMutability": "view",
      "type": "function"
    },
    {
      "inputs": [],
      "name": "lockedProfit",
      "outputs": [
        {
          "internalType": "uint256",
          "name": "",
          "type": "uint256"
        }
      ],
      "stateMutability": "view",
      "type": "function"
    },
    {
      "inputs": [
        {
          "internalType": "address",
          "name": "_oldVersion",
          "type": "address"
        },
        {
          "internalType": "address",
          "name": "_newVersion",
          "type": "address"
        }
      ],
      "name": "migrateStrategy",
      "outputs": [],
      "stateMutability": "nonpayable",
      "type": "function"
    },
    {
      "inputs": [],
      "name": "name",
      "outputs": [
        {
          "internalType": "string",
          "name": "",
          "type": "string"
        }
      ],
      "stateMutability": "view",
      "type": "function"
    },
    {
      "inputs": [],
      "name": "owner",
      "outputs": [
        {
          "internalType": "address",
          "name": "",
          "type": "address"
        }
      ],
      "stateMutability": "view",
      "type": "function"
    },
    {
      "inputs": [],
      "name": "releaseFactor",
      "outputs": [
        {
          "internalType": "uint256",
          "name": "",
          "type": "uint256"
        }
      ],
      "stateMutability": "view",
      "type": "function"
    },
    {
      "inputs": [
        {
          "internalType": "address",
          "name": "user",
          "type": "address"
        }
      ],
      "name": "removeFromWhitelist",
      "outputs": [],
      "stateMutability": "nonpayable",
      "type": "function"
    },
    {
      "inputs": [
        {
          "internalType": "address",
          "name": "_strategy",
          "type": "address"
        }
      ],
      "name": "removeStrategyFromQueue",
      "outputs": [],
      "stateMutability": "nonpayable",
      "type": "function"
    },
    {
      "inputs": [],
      "name": "renounceOwnership",
      "outputs": [],
      "stateMutability": "nonpayable",
      "type": "function"
    },
    {
      "inputs": [
        {
          "internalType": "uint256",
          "name": "_gain",
          "type": "uint256"
        },
        {
          "internalType": "uint256",
          "name": "_loss",
          "type": "uint256"
        },
        {
          "internalType": "uint256",
          "name": "_debtPayment",
          "type": "uint256"
        }
      ],
      "name": "report",
      "outputs": [
        {
          "internalType": "uint256",
          "name": "",
          "type": "uint256"
        }
      ],
      "stateMutability": "nonpayable",
      "type": "function"
    },
    {
      "inputs": [],
      "name": "revokeStrategy",
      "outputs": [],
      "stateMutability": "nonpayable",
      "type": "function"
    },
    {
      "inputs": [],
      "name": "rewards",
      "outputs": [
        {
          "internalType": "address",
          "name": "",
          "type": "address"
        }
      ],
      "stateMutability": "view",
      "type": "function"
    },
    {
      "inputs": [
        {
          "internalType": "address",
          "name": "_bouncer",
          "type": "address"
        }
      ],
      "name": "setBouncer",
      "outputs": [],
      "stateMutability": "nonpayable",
      "type": "function"
    },
    {
      "inputs": [
        {
          "internalType": "address",
          "name": "_strategy",
          "type": "address"
        },
        {
          "internalType": "uint256",
          "name": "_debtRatio",
          "type": "uint256"
        }
      ],
      "name": "setDebtRatio",
      "outputs": [],
      "stateMutability": "nonpayable",
      "type": "function"
    },
    {
      "inputs": [
        {
          "internalType": "uint256[]",
          "name": "_strategyDebtRatios",
          "type": "uint256[]"
        }
      ],
      "name": "setDebtRatios",
      "outputs": [],
      "stateMutability": "nonpayable",
      "type": "function"
    },
    {
      "inputs": [
        {
          "internalType": "uint256",
          "name": "_newLimit",
          "type": "uint256"
        }
      ],
      "name": "setDepositLimit",
      "outputs": [],
      "stateMutability": "nonpayable",
      "type": "function"
    },
    {
      "inputs": [
        {
          "internalType": "uint256",
          "name": "_factor",
          "type": "uint256"
        }
      ],
      "name": "setProfitRelease",
      "outputs": [],
      "stateMutability": "nonpayable",
      "type": "function"
    },
    {
      "inputs": [
        {
          "internalType": "address",
          "name": "_rewards",
          "type": "address"
        }
      ],
      "name": "setRewards",
      "outputs": [],
      "stateMutability": "nonpayable",
      "type": "function"
    },
    {
      "inputs": [
        {
          "internalType": "address",
          "name": "_user",
          "type": "address"
        },
        {
          "internalType": "uint256",
          "name": "_amount",
          "type": "uint256"
        }
      ],
      "name": "setUserAllowance",
      "outputs": [],
      "stateMutability": "nonpayable",
      "type": "function"
    },
    {
      "inputs": [
        {
          "internalType": "uint256",
          "name": "_fee",
          "type": "uint256"
        }
      ],
      "name": "setVaultFee",
      "outputs": [],
      "stateMutability": "nonpayable",
      "type": "function"
    },
    {
      "inputs": [
        {
          "internalType": "address[]",
          "name": "_queue",
          "type": "address[]"
        }
      ],
      "name": "setWithdrawalQueue",
      "outputs": [],
      "stateMutability": "nonpayable",
      "type": "function"
    },
    {
      "inputs": [
        {
          "internalType": "address",
          "name": "",
          "type": "address"
        }
      ],
      "name": "strategies",
      "outputs": [
        {
          "internalType": "uint256",
          "name": "activation",
          "type": "uint256"
        },
        {
          "internalType": "bool",
          "name": "active",
          "type": "bool"
        },
        {
          "internalType": "uint256",
          "name": "debtRatio",
          "type": "uint256"
        },
        {
          "internalType": "uint256",
          "name": "minDebtPerHarvest",
          "type": "uint256"
        },
        {
          "internalType": "uint256",
          "name": "maxDebtPerHarvest",
          "type": "uint256"
        },
        {
          "internalType": "uint256",
          "name": "lastReport",
          "type": "uint256"
        },
        {
          "internalType": "uint256",
          "name": "totalDebt",
          "type": "uint256"
        },
        {
          "internalType": "uint256",
          "name": "totalGain",
          "type": "uint256"
        },
        {
          "internalType": "uint256",
          "name": "totalLoss",
          "type": "uint256"
        }
      ],
      "stateMutability": "view",
      "type": "function"
    },
    {
      "inputs": [],
      "name": "strategyDebt",
      "outputs": [
        {
          "internalType": "uint256",
          "name": "",
          "type": "uint256"
        }
      ],
      "stateMutability": "view",
      "type": "function"
    },
    {
      "inputs": [
        {
          "internalType": "uint256",
          "name": "_index",
          "type": "uint256"
        }
      ],
      "name": "strategyHarvest",
      "outputs": [],
      "stateMutability": "nonpayable",
      "type": "function"
    },
    {
      "inputs": [
        {
          "internalType": "uint256",
          "name": "_index",
          "type": "uint256"
        },
        {
          "internalType": "uint256",
          "name": "_callCost",
          "type": "uint256"
        }
      ],
      "name": "strategyHarvestTrigger",
      "outputs": [
        {
          "internalType": "bool",
          "name": "",
          "type": "bool"
        }
      ],
      "stateMutability": "view",
      "type": "function"
    },
    {
      "inputs": [
        {
          "internalType": "address",
          "name": "_token",
          "type": "address"
        },
        {
          "internalType": "address",
          "name": "_recipient",
          "type": "address"
        }
      ],
      "name": "sweep",
      "outputs": [],
      "stateMutability": "nonpayable",
      "type": "function"
    },
    {
      "inputs": [],
      "name": "symbol",
      "outputs": [
        {
          "internalType": "string",
          "name": "",
          "type": "string"
        }
      ],
      "stateMutability": "view",
      "type": "function"
    },
    {
      "inputs": [],
      "name": "token",
      "outputs": [
        {
          "internalType": "address",
          "name": "",
          "type": "address"
        }
      ],
      "stateMutability": "view",
      "type": "function"
    },
    {
      "inputs": [],
      "name": "totalAssets",
      "outputs": [
        {
          "internalType": "uint256",
          "name": "",
          "type": "uint256"
        }
      ],
      "stateMutability": "view",
      "type": "function"
    },
    {
      "inputs": [],
      "name": "totalDebt",
      "outputs": [
        {
          "internalType": "uint256",
          "name": "",
          "type": "uint256"
        }
      ],
      "stateMutability": "view",
      "type": "function"
    },
    {
      "inputs": [],
      "name": "totalEstimatedAssets",
      "outputs": [
        {
          "internalType": "uint256",
          "name": "",
          "type": "uint256"
        }
      ],
      "stateMutability": "view",
      "type": "function"
    },
    {
      "inputs": [],
      "name": "totalSupply",
      "outputs": [
        {
          "internalType": "uint256",
          "name": "",
          "type": "uint256"
        }
      ],
      "stateMutability": "view",
      "type": "function"
    },
    {
      "inputs": [
        {
          "internalType": "address",
          "name": "recipient",
          "type": "address"
        },
        {
          "internalType": "uint256",
          "name": "amount",
          "type": "uint256"
        }
      ],
      "name": "transfer",
      "outputs": [
        {
          "internalType": "bool",
          "name": "",
          "type": "bool"
        }
      ],
      "stateMutability": "nonpayable",
      "type": "function"
    },
    {
      "inputs": [
        {
          "internalType": "address",
          "name": "sender",
          "type": "address"
        },
        {
          "internalType": "address",
          "name": "recipient",
          "type": "address"
        },
        {
          "internalType": "uint256",
          "name": "amount",
          "type": "uint256"
        }
      ],
      "name": "transferFrom",
      "outputs": [
        {
          "internalType": "bool",
          "name": "",
          "type": "bool"
        }
      ],
      "stateMutability": "nonpayable",
      "type": "function"
    },
    {
      "inputs": [
        {
          "internalType": "address",
          "name": "newOwner",
          "type": "address"
        }
      ],
      "name": "transferOwnership",
      "outputs": [],
      "stateMutability": "nonpayable",
      "type": "function"
    },
    {
      "inputs": [
        {
          "internalType": "address",
          "name": "_strategy",
          "type": "address"
        },
        {
          "internalType": "uint256",
          "name": "_maxDebtPerHarvest",
          "type": "uint256"
        }
      ],
      "name": "updateStrategyMaxDebtPerHarvest",
      "outputs": [],
      "stateMutability": "nonpayable",
      "type": "function"
    },
    {
      "inputs": [
        {
          "internalType": "address",
          "name": "_strategy",
          "type": "address"
        },
        {
          "internalType": "uint256",
          "name": "_minDebtPerHarvest",
          "type": "uint256"
        }
      ],
      "name": "updateStrategyMinDebtPerHarvest",
      "outputs": [],
      "stateMutability": "nonpayable",
      "type": "function"
    },
    {
      "inputs": [
        {
          "internalType": "address",
          "name": "",
          "type": "address"
        }
      ],
      "name": "userAllowance",
      "outputs": [
        {
          "internalType": "uint256",
          "name": "",
          "type": "uint256"
        }
      ],
      "stateMutability": "view",
      "type": "function"
    },
    {
      "inputs": [],
      "name": "vaultFee",
      "outputs": [
        {
          "internalType": "uint256",
          "name": "",
          "type": "uint256"
        }
      ],
      "stateMutability": "view",
      "type": "function"
    },
    {
      "inputs": [
        {
          "internalType": "address",
          "name": "",
          "type": "address"
        }
      ],
      "name": "whitelist",
      "outputs": [
        {
          "internalType": "bool",
          "name": "",
          "type": "bool"
        }
      ],
      "stateMutability": "view",
      "type": "function"
    },
    {
      "inputs": [
        {
          "internalType": "uint256",
          "name": "_shares",
          "type": "uint256"
        },
        {
          "internalType": "uint256",
          "name": "_maxLoss",
          "type": "uint256"
        }
      ],
      "name": "withdraw",
      "outputs": [
        {
          "internalType": "uint256",
          "name": "",
          "type": "uint256"
        }
      ],
      "stateMutability": "nonpayable",
      "type": "function"
    },
    {
      "inputs": [
        {
          "internalType": "uint256",
          "name": "",
          "type": "uint256"
        }
      ],
      "name": "withdrawalQueue",
      "outputs": [
        {
          "internalType": "address",
          "name": "",
          "type": "address"
        }
      ],
      "stateMutability": "view",
      "type": "function"
    }
  ],
  "bytecode": "0x60e06040526008805460ff191660011790553480156200001e57600080fd5b50604051620059bb380380620059bb8339810160408190526200004191620003d7565b826001600160a01b03166395d89b416040518163ffffffff1660e01b815260040160006040518083038186803b1580156200007b57600080fd5b505afa15801562000090573d6000803e3d6000fd5b505050506040513d6000823e601f3d908101601f19168201604052620000ba919081019062000417565b604051602001620000cc919062000522565b604051602081830303815290604052836001600160a01b03166395d89b416040518163ffffffff1660e01b815260040160006040518083038186803b1580156200011557600080fd5b505afa1580156200012a573d6000803e3d6000fd5b505050506040513d6000823e601f3d908101601f1916820160405262000154919081019062000417565b604051602001620001669190620004f5565b60408051808303601f190181529190526200018133620002c4565b81516200019690600590602085019062000314565b508051620001ac90600690602084019062000314565b50506001600755506001600160601b0319606084901b16608052426016556040805163313ce56760e01b815290516000916001600160a01b0386169163313ce56791600480820192602092909190829003018186803b1580156200020f57600080fd5b505afa15801562000224573d6000803e3d6000fd5b505050506040513d601f19601f820116820180604052508101906200024a9190620004cb565b60ff1660a081905290506200026181600a620005c8565b6200026d908462000698565b60c052601880546001600160a01b0319166001600160a01b038416179055620f42406200029d6012600a620005d6565b620002aa90602e62000698565b620002b691906200055e565b601255506200075692505050565b600080546001600160a01b038381166001600160a01b0319831681178455604051919092169283917f8be0079c531659141344cd1fd0a4f28419497f9722a3daafe3b4186f6b6457e09190a35050565b8280546200032290620006ed565b90600052602060002090601f01602090048101928262000346576000855562000391565b82601f106200036157805160ff191683800117855562000391565b8280016001018555821562000391579182015b828111156200039157825182559160200191906001019062000374565b506200039f929150620003a3565b5090565b5b808211156200039f5760008155600101620003a4565b80516001600160a01b0381168114620003d257600080fd5b919050565b600080600060608486031215620003ec578283fd5b620003f784620003ba565b9250602084015191506200040e60408501620003ba565b90509250925092565b60006020828403121562000429578081fd5b81516001600160401b038082111562000440578283fd5b818401915084601f83011262000454578283fd5b81518181111562000469576200046962000740565b604051601f8201601f19908116603f0116810190838211818310171562000494576200049462000740565b81604052828152876020848701011115620004ad578586fd5b620004c0836020830160208801620006ba565b979650505050505050565b600060208284031215620004dd578081fd5b815160ff81168114620004ee578182fd5b9392505050565b6267726f60e81b81526000825162000515816003850160208701620006ba565b9190910160030192915050565b63023b937960e51b81526000825162000543816004850160208701620006ba565b63102630b160e11b6004939091019283015250600801919050565b6000826200057a57634e487b7160e01b81526012600452602481fd5b500490565b600181815b80851115620005c0578160001904821115620005a457620005a46200072a565b80851615620005b257918102915b93841c939080029062000584565b509250929050565b6000620004ee8383620005e2565b6000620004ee60ff8416835b600082620005f35750600162000692565b81620006025750600062000692565b81600181146200061b5760028114620006265762000646565b600191505062000692565b60ff8411156200063a576200063a6200072a565b50506001821b62000692565b5060208310610133831016604e8410600b84101617156200066b575081810a62000692565b6200067783836200057f565b80600019048211156200068e576200068e6200072a565b0290505b92915050565b6000816000190483118215151615620006b557620006b56200072a565b500290565b60005b83811015620006d7578181015183820152602001620006bd565b83811115620006e7576000848401525b50505050565b600181811c908216806200070257607f821691505b602082108114156200072457634e487b7160e01b600052602260045260246000fd5b50919050565b634e487b7160e01b600052601160045260246000fd5b634e487b7160e01b600052604160045260246000fd5b60805160601c60a05160c0516151d7620007e46000396000818161075a015281816129f501528181612a3901526137e40152600081816104620152818161116001528181613808015261389c0152600081816108e8015281816112eb0152818161217e01528181612aee01528181612ba301528181612d4e015281816139400152613d5801526151d76000f3fe608060405234801561001057600080fd5b506004361061037c5760003560e01c80639ec5a894116101d5578063cab2080811610105578063e722befe116100a8578063e722befe14610868578063ec38a8621461087b578063ecf708581461088e578063f2fde38b14610897578063f6bad0e3146108aa578063f76e4caa146108bd578063fb0fc076146108d0578063fc0c546a146108e3578063fc7b9c181461090a57600080fd5b8063cab20808146107c5578063cea55f57146107cd578063d7648013146107d6578063dd62ed3e146107e9578063de242ff414610822578063e04e73411461082f578063e43252d714610842578063e438c4b71461085557600080fd5b8063b8dc491b11610178578063b8dc491b1461070b578063bdc8144b1461071e578063bdcf36bb14610731578063bf3759b514610744578063c3535b521461074c578063c45b35ef14610755578063c53368351461077c578063c822adda1461078f578063c884ef83146107a257600080fd5b80639ec5a8941461067e578063a0e4af9a14610691578063a1d9bafc14610699578063a457c2d7146106ac578063a9059cbb146106bf578063ac579b77146106d2578063b22439f5146106e5578063b6b55f25146106f857600080fd5b80633e9dc762116102b057806370a082311161025357806370a08231146105ed578063715018a614610600578063772d2312146106085780638ab1d681146106105780638c3d7819146106235780638da5cb5b1461063657806395d89b411461064b5780639666b83b146106535780639b19251a1461065b57600080fd5b80633e9dc76214610564578063441a3e701461057c57806344b813961461058f5780634757a1561461059857806351d1df68146105ab5780635cb44e25146105be5780635da69cb6146105d15780636cb56d19146105da57600080fd5b80631571221611610323578063157122161461042d57806318160ddd1461044057806323b872dd14610448578063313ce5671461045b57806335582baa1461048c5780633629c8de1461049f57806339509351146104a857806339ebf823146104bb5780633d68175c1461055c57600080fd5b806301ac145b1461038157806301e1d1141461039d57806306fdde03146103a5578063095ea7b3146103ba5780630c6b2cbf146103dd5780630dd21b6c146103fd578063112c1f9b14610412578063135ccc471461041a575b600080fd5b61038a601a5481565b6040519081526020015b60405180910390f35b61038a610913565b6103ad610922565b6040516103949190614e2f565b6103cd6103c8366004614b68565b6109b4565b6040519015158152602001610394565b61038a6103eb366004614ab8565b600a6020526000908152604090205481565b61041061040b366004614b93565b6109cb565b005b61038a610dbc565b610410610428366004614d35565b610dc7565b61041061043b366004614ab8565b610f79565b60045461038a565b6103cd610456366004614b28565b610ffe565b60405160ff7f0000000000000000000000000000000000000000000000000000000000000000168152602001610394565b61041061049a366004614cfd565b6110aa565b61038a60165481565b6103cd6104b6366004614b68565b61111a565b6105186104c9366004614ab8565b600b60205260009081526040902080546001820154600283015460038401546004850154600586015460068701546007880154600890980154969760ff90961696949593949293919290919089565b60408051998a5297151560208a0152968801959095526060870193909352608086019190915260a085015260c084015260e083015261010082015261012001610394565b61038a611156565b336000908152600b602052604090206006015461038a565b61038a61058a366004614d65565b61118b565b61038a60115481565b6104106105a6366004614b68565b611836565b6104106105b9366004614d35565b6119b8565b6103cd6105cc366004614d65565b611a4e565b61038a60125481565b6104106105e8366004614af0565b611b12565b61038a6105fb366004614ab8565b611ee2565b610410611efd565b61038a600581565b61041061061e366004614ab8565b611f38565b610410610631366004614d35565b611fd6565b61063e612085565b6040516103949190614dcd565b6103ad612094565b61038a6120a3565b6103cd610669366004614ab8565b60016020526000908152604090205460ff1681565b60195461063e906001600160a01b031681565b6104106120ad565b61038a6106a7366004614d86565b612124565b6103cd6106ba366004614b68565b61252e565b6103cd6106cd366004614b68565b6125c7565b6104106106e0366004614bcd565b6125d4565b6104106106f3366004614ab8565b612785565b61038a610706366004614d35565b6128f5565b610410610719366004614af0565b612b72565b61041061072c366004614d35565b612caf565b61038a61073f366004614ab8565b612d13565b61038a612d1e565b61038a60155481565b61038a7f000000000000000000000000000000000000000000000000000000000000000081565b60185461063e906001600160a01b031681565b61063e61079d366004614d35565b612d29565b6103cd6107b0366004614ab8565b60096020526000908152604090205460ff1681565b61038a612d49565b61038a60135481565b61038a6107e4366004614ab8565b612e29565b61038a6107f7366004614af0565b6001600160a01b03918216600090815260036020908152604080832093909416825291909152205490565b6008546103cd9060ff1681565b61038a61083d366004614d35565b612e34565b610410610850366004614ab8565b612e3f565b610410610863366004614b68565b612ee3565b610410610876366004614b68565b61302a565b610410610889366004614ab8565b6131a0565b61038a60175481565b6104106108a5366004614ab8565b61321a565b6104106108b8366004614c3d565b6132ba565b6104106108cb366004614ab8565b613481565b6104106108de366004614b68565b613758565b61063e7f000000000000000000000000000000000000000000000000000000000000000081565b61038a60145481565b600061091d613939565b905090565b606060058054610931906150e2565b80601f016020809104026020016040519081016040528092919081815260200182805461095d906150e2565b80156109aa5780601f1061097f576101008083540402835291602001916109aa565b820191906000526020600020905b81548152906001019060200180831161098d57829003601f168201915b5050505050905090565b60006109c13384846139e4565b5060015b92915050565b336109d4612085565b6001600160a01b031614610a035760405162461bcd60e51b81526004016109fa90614e93565b60405180910390fd5b6000600c610a136001600561509f565b60058110610a3157634e487b7160e01b600052603260045260246000fd5b01546001600160a01b031614610a935760405162461bcd60e51b815260206004820152602160248201527f61646453747261746567793a203e204d4158494d554d5f5354524154454749456044820152605360f81b60648201526084016109fa565b6001600160a01b038416610ae45760405162461bcd60e51b815260206004820152601860248201527761646453747261746567793a20616464726573732830782960401b60448201526064016109fa565b6001600160a01b0384166000908152600b602052604090206001015460ff1615610b4a5760405162461bcd60e51b815260206004820152601760248201527618591914dd1c985d1959de4e88085858dd1a5d985d1959604a1b60448201526064016109fa565b836001600160a01b031663fbfa77cf6040518163ffffffff1660e01b815260040160206040518083038186803b158015610b8357600080fd5b505afa158015610b97573d6000803e3d6000fd5b505050506040513d601f19601f82011682018060405250810190610bbb9190614ad4565b6001600160a01b0316306001600160a01b031614610c115760405162461bcd60e51b815260206004820152601360248201527218591914dd1c985d1959de4e88085d985d5b1d606a1b60448201526064016109fa565b610c1d6004600a614fd4565b83601354610c2b9190614f4d565b1115610c795760405162461bcd60e51b815260206004820152601d60248201527f61646453747261746567793a2064656274526174696f203e203130302500000060448201526064016109fa565b80821115610cc25760405162461bcd60e51b81526020600482015260166024820152750c2c8c8a6e8e4c2e8cacef27440dad2dc407c40dac2f60531b60448201526064016109fa565b6001600160a01b0384166000818152600b6020908152604091829020428082556001808301805460ff19169091179055600282018890556003820187905560048201869055600582015582518781529182018690529181018490529091907f3586d47464d021baa33927385fac3386971b58ccfe7f5dfe4c837d38f8910c759060600160405180910390a28360136000828254610d5f9190614f4d565b90915550859050600c610d70613b08565b60058110610d8e57634e487b7160e01b600052603260045260246000fd5b0180546001600160a01b0319166001600160a01b0392909216919091179055610db5613b68565b5050505050565b600061091d33613c62565b60026007541415610dea5760405162461bcd60e51b81526004016109fa90614eef565b60026007553360009081526001602052604090205460ff16610e3f5760405162461bcd60e51b815260206004820152600e60248201526d1bdb9b1e481dda1a5d195b1a5cdd60921b60448201526064016109fa565b610e47613b08565b8110610e655760405162461bcd60e51b81526004016109fa90614f26565b6000600c8260058110610e8857634e487b7160e01b600052603260045260246000fd5b01546001600160a01b031690506000610e9f613939565b9050816001600160a01b0316634641257d6040518163ffffffff1660e01b8152600401600060405180830381600087803b158015610edc57600080fd5b505af1158015610ef0573d6000803e3d6000fd5b505050506000610efe613939565b905060008082841115610f2057610f15838561509f565b905060019150610f31565b610f2a848461509f565b9050600091505b604080518315158152602081018390527f563299b3cea13d0c7eaf34be3ef046674da9c4515ccb7168d0b6b76ee51de999910160405180910390a15050600160075550505050565b33610f82612085565b6001600160a01b031614610fa85760405162461bcd60e51b81526004016109fa90614e93565b601880546001600160a01b0319166001600160a01b0383161790556040517f37fc88d041ee44a8c99855f5123550d8063586b8943d755664fe21853a37ded690610ff3908390614dcd565b60405180910390a150565b600061100b848484613e75565b6001600160a01b0384166000908152600360209081526040808320338452909152902054828110156110905760405162461bcd60e51b815260206004820152602860248201527f45524332303a207472616e7366657220616d6f756e74206578636565647320616044820152676c6c6f77616e636560c01b60648201526084016109fa565b61109d85338584036139e4565b60019150505b9392505050565b336110b3612085565b6001600160a01b0316146110d95760405162461bcd60e51b81526004016109fa90614e93565b6008805460ff19168215159081179091556040519081527fedc78a6979d711a718e08c7bf6abc68c7fae72f0e425a8594db3bed0ac1bcad890602001610ff3565b3360008181526003602090815260408083206001600160a01b038716845290915281205490916109c1918590611151908690614f4d565b6139e4565b600061091d6111867f0000000000000000000000000000000000000000000000000000000000000000600a614fc8565b614033565b6000600260075414156111b05760405162461bcd60e51b81526004016109fa90614eef565b60026007556111c16004600a614fd4565b82111561120c5760405162461bcd60e51b815260206004820152601960248201527877697468647261773a205f6d61784c6f7373203e203130302560381b60448201526064016109fa565b600083116112555760405162461bcd60e51b8152602060048201526016602482015275077697468647261773a205f736861726573203d3d20360541b60448201526064016109fa565b600061126033611ee2565b905060006000198514611273578461127c565b61127c33611ee2565b9050818111156112ce5760405162461bcd60e51b815260206004820152601e60248201527f77697468647261772c20736861726573203e207573657242616c616e6365000060448201526064016109fa565b60006112d982614033565b6040516370a0823160e01b81529091507f0000000000000000000000000000000000000000000000000000000000000000906000906001600160a01b038316906370a082319061132d903090600401614dcd565b60206040518083038186803b15801561134557600080fd5b505afa158015611359573d6000803e3d6000fd5b505050506040513d601f19601f8201168201806040525081019061137d9190614d4d565b831115611776576040805160a0810191829052600091600c9060059082845b81546001600160a01b0316815260019091019060200180831161139c575050505050905060005b600581101561165d5760008282600581106113ee57634e487b7160e01b600052603260045260246000fd5b602002015190506001600160a01b038116611409575061165d565b6040516370a0823160e01b81526000906001600160a01b038716906370a0823190611438903090600401614dcd565b60206040518083038186803b15801561145057600080fd5b505afa158015611464573d6000803e3d6000fd5b505050506040513d601f19601f820116820180604052508101906114889190614d4d565b905080871161149857505061165d565b60006114a4828961509f565b6001600160a01b0384166000908152600b602052604090206006810154919250906114d090839061406a565b9150816114e0575050505061164b565b604051632e1a7d4d60e01b8152600481018390526000906001600160a01b03861690632e1a7d4d90602401602060405180830381600087803b15801561152557600080fd5b505af1158015611539573d6000803e3d6000fd5b505050506040513d601f19601f8201168201806040525081019061155d9190614d4d565b90506000848a6001600160a01b03166370a08231306040518263ffffffff1660e01b815260040161158e9190614dcd565b60206040518083038186803b1580156115a657600080fd5b505afa1580156115ba573d6000803e3d6000fd5b505050506040513d601f19601f820116820180604052508101906115de9190614d4d565b6115e8919061509f565b90508115611612576115fa828c61509f565b9a50611606828a614f4d565b98506116128683614080565b80836006016000828254611626919061509f565b92505081905550806014600082825461163f919061509f565b90915550505050505050505b8061165581615117565b9150506113c3565b506040516370a0823160e01b81526000906001600160a01b038516906370a082319061168d903090600401614dcd565b60206040518083038186803b1580156116a557600080fd5b505afa1580156116b9573d6000803e3d6000fd5b505050506040513d601f19601f820116820180604052508101906116dd9190614d4d565b9050808511156116ff579350836116fc6116f78483614f4d565b61413e565b95505b61170b6004600a614fd4565b6117158487614f4d565b61171f908b615080565b6117299190614f65565b8311156117735760405162461bcd60e51b815260206004820152601860248201527777697468647261773a206c6f7373203e206d61786c6f737360401b60448201526064016109fa565b50505b6117803385614164565b6117946001600160a01b03831633856142a0565b60085460009060ff16156117db576117ac8285614f4d565b336000908152600a60205260409020546117c69190614f4d565b336000908152600a6020526040902081905590505b60408051858152602081018790529081018390526060810182905233907fab0db1f1d6053f0c5e9e0333bd02e8e46a6996df63ddf355481cf233cea5ae279060800160405180910390a2505060016007555095945050505050565b3361183f612085565b6001600160a01b0316146118655760405162461bcd60e51b81526004016109fa90614e93565b6001600160a01b0382166000908152600b60205260409020546118de5760405162461bcd60e51b815260206004820152602b60248201527f75706461746553747261746567794d617844656274506572486172766573743a60448201526a08085858dd1a5d985d195960aa1b60648201526084016109fa565b6001600160a01b0382166000908152600b602052604090206003015481101561195c5760405162461bcd60e51b815260206004820152602a60248201527f75706461746553747261746567794d617844656274506572486172766573743a604482015269040dad2dc407c40dac2f60b31b60648201526084016109fa565b6001600160a01b0382166000818152600b602052604090819020600401839055517fd57caa6337591e8c2fe908a4fb0bb9c4bcaf42a657ee20be2717ef81aa4f19aa906119ac9084815260200190565b60405180910390a25050565b336119c1612085565b6001600160a01b0316146119e75760405162461bcd60e51b81526004016109fa90614e93565b6000620f4240826119fa6012600a614fd4565b611a049190615080565b611a0e9190614f65565b60128190556040518181529091507f878c3cca2b60914ab09a7e6a59c03fe2cb9b7c7ead8fef12a5eb1d90bcd1ab10906020015b60405180910390a15050565b6000611a58613b08565b8310611a765760405162461bcd60e51b81526004016109fa90614f26565b600c8360058110611a9757634e487b7160e01b600052603260045260246000fd5b015460405163ed882c2b60e01b8152600481018490526001600160a01b039091169063ed882c2b9060240160206040518083038186803b158015611ada57600080fd5b505afa158015611aee573d6000803e3d6000fd5b505050506040513d601f19601f820116820180604052508101906110a39190614d19565b33611b1b612085565b6001600160a01b031614611b415760405162461bcd60e51b81526004016109fa90614e93565b6001600160a01b038116611b8d5760405162461bcd60e51b81526020600482015260136024820152720dad2cee4c2e8caa6e8e4c2e8cacef2744060f606b1b60448201526064016109fa565b6001600160a01b0382166000908152600b6020526040902054611c015760405162461bcd60e51b815260206004820152602660248201527f6d69677261746553747261746567793a206f6c6456657273696f6e20216163746044820152651a5d985d195960d21b60648201526084016109fa565b6001600160a01b0382166000908152600b602052604090206001015460ff16611c785760405162461bcd60e51b815260206004820152602360248201527f6d69677261746553747261746567793a206f6c6456657273696f6e202161637460448201526269766560e81b60648201526084016109fa565b6001600160a01b0381166000908152600b602052604090205415611cec5760405162461bcd60e51b815260206004820152602560248201527f6d69677261746553747261746567793a206e657756657273696f6e20616374696044820152641d985d195960da1b60648201526084016109fa565b6001600160a01b0382166000908152600b6020526040812060028101546013805492939192909190611d1f908490614f4d565b90915550506001600160a01b038083166000908152600b60205260408082204281556001808201805460ff191690911790556002808601549082015560038086015490820155600480860154818301556005808701549083015560068201849055600782018490556008820193909355905163ce5494bb60e01b8152909286169163ce5494bb91611db291879101614dcd565b600060405180830381600087803b158015611dcc57600080fd5b505af1158015611de0573d6000803e3d6000fd5b505060006006850181905560038501819055600485018190556040516001600160a01b038088169450881692507feb6703dc9f9bdf90f637c0ef7b9dd7a08c095983cf29923c90d98f345dd95caf9190a3611e3a84614303565b60005b6005811015610db557846001600160a01b0316600c8260058110611e7157634e487b7160e01b600052603260045260246000fd5b01546001600160a01b03161415611ecc5783600c8260058110611ea457634e487b7160e01b600052603260045260246000fd5b0180546001600160a01b0319166001600160a01b039290921691909117905550611ede915050565b80611ed681615117565b915050611e3d565b5050565b6001600160a01b031660009081526002602052604090205490565b33611f06612085565b6001600160a01b031614611f2c5760405162461bcd60e51b81526004016109fa90614e93565b611f36600061438a565b565b33611f41612085565b6001600160a01b031614611f675760405162461bcd60e51b81526004016109fa90614e93565b6001600160a01b038116611f8d5760405162461bcd60e51b81526004016109fa90614ec8565b6001600160a01b038116600081815260016020526040808220805460ff19169055517f9e9499495e2efd848d33cb197bde94612c1ec36f30605b60d445511e056069e19190a250565b33611fdf612085565b6001600160a01b0316146120055760405162461bcd60e51b81526004016109fa90614e93565b610bb881106120505760405162461bcd60e51b81526020600482015260176024820152767365745661756c744665653a205f666565203e2033302560481b60448201526064016109fa565b601a8190556040518181527f01fa6949e7a4e70ebcf603589526b183cfd84c0023e87018cf99f1d661a72bbc90602001610ff3565b6000546001600160a01b031690565b606060068054610931906150e2565b600061091d613b08565b336000908152600b602052604090206001015460ff1661211b5760405162461bcd60e51b815260206004820152602360248201527f7265766f6b6553747261746567793a207374726174656779206e6f742061637460448201526269766560e81b60648201526084016109fa565b611f3633614303565b336000908152600b60205260408120600181015460ff1661217c5760405162461bcd60e51b81526020600482015260126024820152711c995c1bdc9d0e88085858dd1a5d985d195960721b60448201526064016109fa565b7f00000000000000000000000000000000000000000000000000000000000000006121a78487614f4d565b6040516370a0823160e01b81526001600160a01b038316906370a08231906121d3903390600401614dcd565b60206040518083038186803b1580156121eb57600080fd5b505afa1580156121ff573d6000803e3d6000fd5b505050506040513d601f19601f820116820180604052508101906122239190614d4d565b101561228a5760405162461bcd60e51b815260206004820152603060248201527f7265706f72743a2062616c616e636528737472617465677929203c205f67616960448201526f1b880ac817d919589d14185e5b595b9d60821b60648201526084016109fa565b841561229a5761229a3386614080565b8582600701546122aa9190614f4d565b600783015560006122ba336143da565b905060006122c8868361406a565b9050801561230d578084600601546122e0919061509f565b846006018190555080601460008282546122fa919061509f565b9091555061230a9050818361509f565b91505b600061231833613c62565b9050801561235357808560060160008282546123349190614f4d565b92505081905550806014600082825461234d9190614f4d565b90915550505b600061235f838b614f4d565b90508181101561238d5761238833612377838561509f565b6001600160a01b03881691906142a0565b6123b6565b818111156123b6576123b633306123a4858561509f565b6001600160a01b03891692919061444d565b60006123c18b614485565b6123c96144d5565b6123d39190614f4d565b9050898111156123ef576123e78a8261509f565b6011556123f5565b60006011555b426015819055506015548760050181905550336001600160a01b03167fdd2147c7c786ce7a36d0010e0b96b77cafac9d0a6802f882d2c2255777d744b48c8c878b600701548c600801548d600601548a8f6002015460405161248f989796959493929190978852602088019690965260408701949094526060860192909252608085015260a084015260c083015260e08201526101000190565b60405180910390a2600287015461251f57336001600160a01b031663efbb5cb06040518163ffffffff1660e01b815260040160206040518083038186803b1580156124d957600080fd5b505afa1580156124ed573d6000803e3d6000fd5b505050506040513d601f19601f820116820180604052508101906125119190614d4d565b9750505050505050506110a3565b849750505050505050506110a3565b3360009081526003602090815260408083206001600160a01b0386168452909152812054828110156125b05760405162461bcd60e51b815260206004820152602560248201527f45524332303a2064656372656173656420616c6c6f77616e63652062656c6f77604482015264207a65726f60d81b60648201526084016109fa565b6125bd33858584036139e4565b5060019392505050565b60006109c1338484613e75565b336125dd612085565b6001600160a01b0316146126035760405162461bcd60e51b81526004016109fa90614e93565b60058111156126655760405162461bcd60e51b815260206004820152602860248201527f7365745769746864726177616c51756575653a203e204d4158494d554d5f5354604482015267524154454749455360c01b60648201526084016109fa565b60005b6005811015612780578181106126bf576000600c826005811061269b57634e487b7160e01b600052603260045260246000fd5b0180546001600160a01b0319166001600160a01b0392909216919091179055612735565b8282828181106126df57634e487b7160e01b600052603260045260246000fd5b90506020020160208101906126f49190614ab8565b600c826005811061271557634e487b7160e01b600052603260045260246000fd5b0180546001600160a01b0319166001600160a01b03929092169190911790555b7fc24e80a5fd747b0bbfa6f9a1d7c50f98ab024556c97d3bd6a5cf651445e6b3dd8383604051612766929190614de1565b60405180910390a18061277881615117565b915050612668565b505050565b61278d612085565b6001600160a01b0316336001600160a01b031614806127bb57503360009081526001602052604090205460ff165b6128195760405162461bcd60e51b815260206004820152602960248201527f72656d6f7665537472617465677946726f6d51756575653a20216f776e65727c6044820152681dda1a5d195b1a5cdd60ba1b60648201526084016109fa565b60005b6005811015611ede57816001600160a01b0316600c826005811061285057634e487b7160e01b600052603260045260246000fd5b01546001600160a01b031614156128e3576000600c826005811061288457634e487b7160e01b600052603260045260246000fd5b0180546001600160a01b0319166001600160a01b03929092169190911790556128ab613b68565b6040516001600160a01b038316907fdb6049adb19dec12ff8b7422e722c7d155939bb8080c2ba3f9c8a3b0443c7ad490600090a25050565b806128ed81615117565b91505061281c565b60006002600754141561291a5760405162461bcd60e51b81526004016109fa90614eef565b6002600755816129645760405162461bcd60e51b815260206004820152601560248201527406465706f7369743a205f616d6f756e7420213e203605c1b60448201526064016109fa565b60175482612970613939565b61297a9190614f4d565b11156129c15760405162461bcd60e51b815260206004820152601660248201527519195c1bdcda5d0e880859195c1bdcda5d131a5b5a5d60521b60448201526064016109fa565b60085460009060ff1615612ade5750336000908152600a602090815260408083205460099092529091205460ff16612a7e577f0000000000000000000000000000000000000000000000000000000000000000831115612a335760405162461bcd60e51b81526004016109fa90614e62565b612a5d837f000000000000000000000000000000000000000000000000000000000000000061509f565b336000908152600960205260409020805460ff191660011790559050612acb565b336000908152600a6020526040902054831115612aad5760405162461bcd60e51b81526004016109fa90614e62565b336000908152600a6020526040902054612ac890849061509f565b90505b336000908152600a602052604090208190555b6000612aea3385614544565b90507f0000000000000000000000000000000000000000000000000000000000000000612b226001600160a01b03821633308861444d565b604080518681526020810184905290810184905233907f4b2bcb0ca50531683faa51870e1018aa0d7272c7f2acc5399389b0c0493865d99060600160405180910390a25060016007559392505050565b33612b7b612085565b6001600160a01b031614612ba15760405162461bcd60e51b81526004016109fa90614e93565b7f00000000000000000000000000000000000000000000000000000000000000006001600160a01b0316826001600160a01b03161415612c1a5760405162461bcd60e51b81526020600482015260146024820152731cddd9595c0e881d1bdad95b880f4f481dd85b9d60621b60448201526064016109fa565b6040516370a0823160e01b81526000906001600160a01b038416906370a0823190612c49903090600401614dcd565b60206040518083038186803b158015612c6157600080fd5b505afa158015612c75573d6000803e3d6000fd5b505050506040513d601f19601f82011682018060405250810190612c999190614d4d565b90506127806001600160a01b03841683836142a0565b33612cb8612085565b6001600160a01b031614612cde5760405162461bcd60e51b81526004016109fa90614e93565b60178190556040518181527f90ab2effdb5b095500fdf80ad1d4c418e957095fb6e475ff03576beefc97cae790602001610ff3565b60006109c5826143da565b600061091d336143da565b600c8160058110612d3957600080fd5b01546001600160a01b0316905081565b6000807f00000000000000000000000000000000000000000000000000000000000000006001600160a01b03166370a08231306040518263ffffffff1660e01b8152600401612d989190614dcd565b60206040518083038186803b158015612db057600080fd5b505afa158015612dc4573d6000803e3d6000fd5b505050506040513d601f19601f82011682018060405250810190612de89190614d4d565b905060005b612df5613b08565b811015612e2357612e05816145eb565b612e0f9083614f4d565b915080612e1b81615117565b915050612ded565b50919050565b60006109c582613c62565b60006109c582614693565b33612e48612085565b6001600160a01b031614612e6e5760405162461bcd60e51b81526004016109fa90614e93565b6001600160a01b038116612e945760405162461bcd60e51b81526004016109fa90614ec8565b6001600160a01b0381166000818152600160208190526040808320805460ff1916909217909155517f4e3d8c117d484081f7268ed79cded71ad42979b92feb5f8f7f9824ac5cbfe3759190a250565b6001600160a01b0382166000908152600b602052604090206001015460ff16612f465760405162461bcd60e51b815260206004820152601560248201527473657444656274526174696f3a202161637469766560581b60448201526064016109fa565b612f4e612085565b6001600160a01b0316336001600160a01b03161480612f7c57503360009081526001602052604090205460ff165b612fc35760405162461bcd60e51b81526020600482015260186024820152771cd95d1119589d14985d1a5bce88085dda1a5d195b1a5cdd60421b60448201526064016109fa565b612fcd82826146e1565b612fd96004600a614fd4565b6013541115611ede5760405162461bcd60e51b815260206004820152601e60248201527f73657444656274526174696f3a2064656274526174696f203e2031303025000060448201526064016109fa565b33613033612085565b6001600160a01b0316146130595760405162461bcd60e51b81526004016109fa90614e93565b6001600160a01b0382166000908152600b60205260409020546130d25760405162461bcd60e51b815260206004820152602b60248201527f75706461746553747261746567794d696e44656274506572486172766573743a60448201526a08085858dd1a5d985d195960aa1b60648201526084016109fa565b6001600160a01b0382166000908152600b60205260409020600401548111156131505760405162461bcd60e51b815260206004820152602a60248201527f75706461746553747261746567794d696e44656274506572486172766573743a604482015269040dad2dc407c40dac2f60b31b60648201526084016109fa565b6001600160a01b0382166000818152600b602052604090819020600301839055517f97d937f34d1eadd7b324f774a47165e95470edd473866a60d2162850ca578237906119ac9084815260200190565b336131a9612085565b6001600160a01b0316146131cf5760405162461bcd60e51b81526004016109fa90614e93565b601980546001600160a01b0319166001600160a01b0383161790556040517f47d7c5d0e54dad44a791a37aaafbe848a5b4e4fb8c64462d67fa949c7e10622290610ff3908390614dcd565b33613223612085565b6001600160a01b0316146132495760405162461bcd60e51b81526004016109fa90614e93565b6001600160a01b0381166132ae5760405162461bcd60e51b815260206004820152602660248201527f4f776e61626c653a206e6577206f776e657220697320746865207a65726f206160448201526564647265737360d01b60648201526084016109fa565b6132b78161438a565b50565b6132c2612085565b6001600160a01b0316336001600160a01b031614806132f057503360009081526001602052604090205460ff165b6133385760405162461bcd60e51b81526020600482015260196024820152781cd95d1119589d14985d1a5bdcce88085dda1a5d195b1a5cdd603a1b60448201526064016109fa565b6005815111156133965760405162461bcd60e51b815260206004820152602360248201527f73657444656274526174696f733a203e204d4158494d554d5f5354524154454760448201526249455360e81b60648201526084016109fa565b60008060005b600581101561342357600c81600581106133c657634e487b7160e01b600052603260045260246000fd5b01546001600160a01b03169250826133dd57613423565b8381815181106133fd57634e487b7160e01b600052603260045260246000fd5b6020026020010151915061341183836146e1565b8061341b81615117565b91505061339c565b506134306004600a614fd4565b60135411156127805760405162461bcd60e51b815260206004820152601f60248201527f73657444656274526174696f733a2064656274526174696f203e20313030250060448201526064016109fa565b613489612085565b6001600160a01b0316336001600160a01b031614806134b757503360009081526001602052604090205460ff165b61350f5760405162461bcd60e51b8152602060048201526024808201527f6164645374726174656779546f51756575653a20216f776e65727c77686974656044820152631b1a5cdd60e21b60648201526084016109fa565b6001600160a01b0381166000908152600b60205260409020546135745760405162461bcd60e51b815260206004820152601e60248201527f6164645374726174656779546f51756575653a2021616374697661746564000060448201526064016109fa565b6000600c6135846001600561509f565b600581106135a257634e487b7160e01b600052603260045260246000fd5b01546001600160a01b0316146135fa5760405162461bcd60e51b815260206004820152601e60248201527f6164645374726174656779546f51756575653a2071756575652066756c6c000060448201526064016109fa565b60005b60058110156136cc576000600c826005811061362957634e487b7160e01b600052603260045260246000fd5b01546001600160a01b031690508061364157506136cc565b806001600160a01b0316836001600160a01b031614156136b95760405162461bcd60e51b815260206004820152602d60248201527f6164645374726174656779546f51756575653a20737472617465677920616c7260448201526c6561647920696e20717565756560981b60648201526084016109fa565b50806136c481615117565b9150506135fd565b5080600c6136dc6001600561509f565b600581106136fa57634e487b7160e01b600052603260045260246000fd5b0180546001600160a01b0319166001600160a01b0392909216919091179055613721613b68565b6040516001600160a01b038216907f9bc825e07ecd66a8b4fa4d5a982ca78e22dce2099ea4348ff8b5297b4afac26a90600090a250565b6018546001600160a01b031633146137c25760405162461bcd60e51b815260206004820152602760248201527f73657455736572416c6c6f77616e63653a206d73672e73656e64657220213d206044820152663137bab731b2b960c91b60648201526084016109fa565b6001600160a01b03821660009081526009602052604090205460ff16613897577f000000000000000000000000000000000000000000000000000000000000000061382e7f0000000000000000000000000000000000000000000000000000000000000000600a614fc8565b6138389083615080565b6138429190614f4d565b6001600160a01b0383166000908152600a60205260408120805490919061386a908490614f4d565b90915550506001600160a01b0382166000908152600960205260409020805460ff191660011790556138fa565b6138c27f0000000000000000000000000000000000000000000000000000000000000000600a614fc8565b6138cc9082615080565b6001600160a01b0383166000908152600a6020526040812080549091906138f4908490614f4d565b90915550505b604080516001600160a01b0384168152602081018390527f9028c777fc890e3be2f623e0bc932c51e841f34385fcd65571a2e744e5f63e8e9101611a42565b60006014547f00000000000000000000000000000000000000000000000000000000000000006001600160a01b03166370a08231306040518263ffffffff1660e01b815260040161398a9190614dcd565b60206040518083038186803b1580156139a257600080fd5b505afa1580156139b6573d6000803e3d6000fd5b505050506040513d601f19601f820116820180604052508101906139da9190614d4d565b61091d9190614f4d565b6001600160a01b038316613a465760405162461bcd60e51b8152602060048201526024808201527f45524332303a20617070726f76652066726f6d20746865207a65726f206164646044820152637265737360e01b60648201526084016109fa565b6001600160a01b038216613aa75760405162461bcd60e51b815260206004820152602260248201527f45524332303a20617070726f766520746f20746865207a65726f206164647265604482015261737360f01b60648201526084016109fa565b6001600160a01b0383811660008181526003602090815260408083209487168084529482529182902085905590518481527f8c5be1e5ebec7d5bd14f71427d1e84f3dd0314c0f7b2291e5b200ac8c7c3b925910160405180910390a3505050565b6000805b6005811015613b60576000600c8260058110613b3857634e487b7160e01b600052603260045260246000fd5b01546001600160a01b03161415613b4e57919050565b80613b5881615117565b915050613b0c565b506005905090565b6000805b6005811015611ede576000600c8260058110613b9857634e487b7160e01b600052603260045260246000fd5b01546001600160a01b0316905080613bbc57613bb5600184614f4d565b9250613c4f565b8215613c4f5780600c613bcf858561509f565b60058110613bed57634e487b7160e01b600052603260045260246000fd5b0180546001600160a01b0319166001600160a01b03929092169190911790556000600c8360058110613c2f57634e487b7160e01b600052603260045260246000fd5b0180546001600160a01b0319166001600160a01b03929092169190911790555b5080613c5a81615117565b915050613b6c565b6001600160a01b0381166000908152600b6020908152604080832081516101208101835281548152600182015460ff161515938101939093526002810154918301919091526003810154606083015260048101546080830152600581015460a0830152600681015460c0830152600781015460e08301526008015461010082015281613cec613939565b90506000613cfc6004600a614fd4565b82601354613d0a9190615080565b613d149190614f65565b6014549091506000613d286004600a614fd4565b848660400151613d389190615080565b613d429190614f65565b60c08601516060870151608088015192935090917f00000000000000000000000000000000000000000000000000000000000000008385111580613d865750858711155b15613d9c575060009a9950505050505050505050565b6000613da8858761509f565b9050613dbd81613db8898b61509f565b61406a565b9050613e3f81836001600160a01b03166370a08231306040518263ffffffff1660e01b8152600401613def9190614dcd565b60206040518083038186803b158015613e0757600080fd5b505afa158015613e1b573d6000803e3d6000fd5b505050506040513d601f19601f82011682018060405250810190613db89190614d4d565b905083811015613e5b575060009b9a5050505050505050505050565b613e65818461406a565b9c9b505050505050505050505050565b6001600160a01b038316613ed95760405162461bcd60e51b815260206004820152602560248201527f45524332303a207472616e736665722066726f6d20746865207a65726f206164604482015264647265737360d81b60648201526084016109fa565b6001600160a01b038216613f3b5760405162461bcd60e51b815260206004820152602360248201527f45524332303a207472616e7366657220746f20746865207a65726f206164647260448201526265737360e81b60648201526084016109fa565b6001600160a01b03831660009081526002602052604090205481811015613fb35760405162461bcd60e51b815260206004820152602660248201527f45524332303a207472616e7366657220616d6f756e7420657863656564732062604482015265616c616e636560d01b60648201526084016109fa565b6001600160a01b03808516600090815260026020526040808220858503905591851681529081208054849290613fea908490614f4d565b92505081905550826001600160a01b0316846001600160a01b03166000805160206151828339815191528460405161402491815260200190565b60405180910390a35b50505050565b60008061403f60045490565b90508061404d575090919050565b80614056614785565b6140609085615080565b6110a39190614f65565b600081831061407957816110a3565b5090919050565b6001600160a01b0382166000908152600b6020526040902060068101548211156140ec5760405162461bcd60e51b815260206004820152601e60248201527f5f7265706f72744c6f73733a20746f74616c44656274203e3d206c6f7373000060448201526064016109fa565b818160080160008282546141009190614f4d565b925050819055508181600601600082825461411b919061509f565b925050819055508160146000828254614134919061509f565b9091555050505050565b600080614149614785565b9050801561415b578061405660045490565b50600092915050565b6001600160a01b0382166141c45760405162461bcd60e51b815260206004820152602160248201527f45524332303a206275726e2066726f6d20746865207a65726f206164647265736044820152607360f81b60648201526084016109fa565b6001600160a01b038216600090815260026020526040902054818110156142385760405162461bcd60e51b815260206004820152602260248201527f45524332303a206275726e20616d6f756e7420657863656564732062616c616e604482015261636560f01b60648201526084016109fa565b6001600160a01b038316600090815260026020526040812083830390556004805484929061426790849061509f565b90915550506040518281526000906001600160a01b038516906000805160206151828339815191529060200160405180910390a3505050565b6040516001600160a01b03831660248201526044810182905261278090849063a9059cbb60e01b906064015b60408051601f198184030181529190526020810180516001600160e01b03166001600160e01b0319909316929092179091526147a1565b6001600160a01b0381166000908152600b6020526040812060020154601380549192909161433290849061509f565b90915550506001600160a01b0381166000818152600b602052604080822060028101839055600101805460ff19169055517fc3445f0d5a9ec5b7494384e18eb737b20cc1f3ab475b478e10b8739e4cd436e59190a250565b600080546001600160a01b038381166001600160a01b0319831681178455604051919092169283917f8be0079c531659141344cd1fd0a4f28419497f9722a3daafe3b4186f6b6457e09190a35050565b6001600160a01b0381166000908152600b60205260408120816143ff6004600a614fd4565b614407613939565b83600201546144169190615080565b6144209190614f65565b600683015490915081811161443a57506000949350505050565b614444828261509f565b95945050505050565b6040516001600160a01b038085166024830152831660448201526064810182905261402d9085906323b872dd60e01b906084016142cc565b6000806144946004600a614fd4565b601a546144a19085615080565b6144ab9190614f65565b905080156144cb576019546144c9906001600160a01b031682614544565b505b6110a3818461509f565b600080601254601554426144e9919061509f565b6144f39190615080565b90506145016012600a614fd4565b81101561453c576011546145176012600a614fd4565b6145218284615080565b61452b9190614f65565b614535908261509f565b9250505090565b600091505090565b600080600061455260045490565b9050801561457d57614562614785565b61456c8286615080565b6145769190614f65565b9150614581565b8391505b816145d95760405162461bcd60e51b815260206004820152602260248201527f5f6973737565536861726573466f72416d6f756e743a20736861726573203d3d604482015261020360f41b60648201526084016109fa565b6145e38583614873565b509392505050565b6000600c826005811061460e57634e487b7160e01b600052603260045260246000fd5b0160009054906101000a90046001600160a01b03166001600160a01b031663efbb5cb06040518163ffffffff1660e01b815260040160206040518083038186803b15801561465b57600080fd5b505afa15801561466f573d6000803e3d6000fd5b505050506040513d601f19601f820116820180604052508101906109c59190614d4d565b600080600b6000600c85600581106146bb57634e487b7160e01b600052603260045260246000fd5b01546001600160a01b031681526020810191909152604001600020600601549392505050565b6001600160a01b0382166000908152600b6020526040812060020154601380549192909161471090849061509f565b90915550506001600160a01b0382166000908152600b6020526040812060020182905560138054839290614745908490614f4d565b90915550506040518181526001600160a01b038316907f20026fcfbe8b4c825d73835e062d785add204e5b6dc6c7672c82edfb48195e81906020016119ac565b600061478f6144d5565b614797613939565b61091d919061509f565b60006147f6826040518060400160405280602081526020017f5361666545524332303a206c6f772d6c6576656c2063616c6c206661696c6564815250856001600160a01b03166149409092919063ffffffff16565b80519091501561278057808060200190518101906148149190614d19565b6127805760405162461bcd60e51b815260206004820152602a60248201527f5361666545524332303a204552433230206f7065726174696f6e20646964206e6044820152691bdd081cdd58d8d9595960b21b60648201526084016109fa565b6001600160a01b0382166148c95760405162461bcd60e51b815260206004820152601f60248201527f45524332303a206d696e7420746f20746865207a65726f20616464726573730060448201526064016109fa565b80600460008282546148db9190614f4d565b90915550506001600160a01b03821660009081526002602052604081208054839290614908908490614f4d565b90915550506040518181526001600160a01b038316906000906000805160206151828339815191529060200160405180910390a35050565b606061494f8484600085614957565b949350505050565b6060824710156149b85760405162461bcd60e51b815260206004820152602660248201527f416464726573733a20696e73756666696369656e742062616c616e636520666f6044820152651c8818d85b1b60d21b60648201526084016109fa565b843b614a065760405162461bcd60e51b815260206004820152601d60248201527f416464726573733a2063616c6c20746f206e6f6e2d636f6e747261637400000060448201526064016109fa565b600080866001600160a01b03168587604051614a229190614db1565b60006040518083038185875af1925050503d8060008114614a5f576040519150601f19603f3d011682016040523d82523d6000602084013e614a64565b606091505b5091509150614a74828286614a7f565b979650505050505050565b60608315614a8e5750816110a3565b825115614a9e5782518084602001fd5b8160405162461bcd60e51b81526004016109fa9190614e2f565b600060208284031215614ac9578081fd5b81356110a38161515e565b600060208284031215614ae5578081fd5b81516110a38161515e565b60008060408385031215614b02578081fd5b8235614b0d8161515e565b91506020830135614b1d8161515e565b809150509250929050565b600080600060608486031215614b3c578081fd5b8335614b478161515e565b92506020840135614b578161515e565b929592945050506040919091013590565b60008060408385031215614b7a578182fd5b8235614b858161515e565b946020939093013593505050565b60008060008060808587031215614ba8578081fd5b8435614bb38161515e565b966020860135965060408601359560600135945092505050565b60008060208385031215614bdf578182fd5b823567ffffffffffffffff80821115614bf6578384fd5b818501915085601f830112614c09578384fd5b813581811115614c17578485fd5b8660208260051b8501011115614c2b578485fd5b60209290920196919550909350505050565b60006020808385031215614c4f578182fd5b823567ffffffffffffffff80821115614c66578384fd5b818501915085601f830112614c79578384fd5b813581811115614c8b57614c8b615148565b8060051b604051601f19603f83011681018181108582111715614cb057614cb0615148565b604052828152858101935084860182860187018a1015614cce578788fd5b8795505b83861015614cf0578035855260019590950194938601938601614cd2565b5098975050505050505050565b600060208284031215614d0e578081fd5b81356110a381615173565b600060208284031215614d2a578081fd5b81516110a381615173565b600060208284031215614d46578081fd5b5035919050565b600060208284031215614d5e578081fd5b5051919050565b60008060408385031215614d77578182fd5b50508035926020909101359150565b600080600060608486031215614d9a578283fd5b505081359360208301359350604090920135919050565b60008251614dc38184602087016150b6565b9190910192915050565b6001600160a01b0391909116815260200190565b60208082528181018390526000908460408401835b86811015614e24578235614e098161515e565b6001600160a01b031682529183019190830190600101614df6565b509695505050505050565b6020815260008251806020840152614e4e8160408501602087016150b6565b601f01601f19169190910160400192915050565b6020808252601790820152766465706f7369743a202175736572416c6c6f77616e636560481b604082015260600190565b6020808252818101527f4f776e61626c653a2063616c6c6572206973206e6f7420746865206f776e6572604082015260600190565b6020808252600d908201526c0aed0d2e8ca98d2e6e8744060f609b1b604082015260600190565b6020808252601f908201527f5265656e7472616e637947756172643a207265656e7472616e742063616c6c00604082015260600190565b6020808252600d908201526c0d2dcecc2d8d2c840d2dcc8caf609b1b604082015260600190565b60008219821115614f6057614f60615132565b500190565b600082614f8057634e487b7160e01b81526012600452602481fd5b500490565b600181815b80851115614fc0578160001904821115614fa657614fa6615132565b80851615614fb357918102915b93841c9390800290614f8a565b509250929050565b60006110a38383614fdf565b60006110a360ff8416835b600082614fee575060016109c5565b81614ffb575060006109c5565b8160018114615011576002811461501b57615037565b60019150506109c5565b60ff84111561502c5761502c615132565b50506001821b6109c5565b5060208310610133831016604e8410600b841016171561505a575081810a6109c5565b6150648383614f85565b806000190482111561507857615078615132565b029392505050565b600081600019048311821515161561509a5761509a615132565b500290565b6000828210156150b1576150b1615132565b500390565b60005b838110156150d15781810151838201526020016150b9565b8381111561402d5750506000910152565b600181811c908216806150f657607f821691505b60208210811415612e2357634e487b7160e01b600052602260045260246000fd5b600060001982141561512b5761512b615132565b5060010190565b634e487b7160e01b600052601160045260246000fd5b634e487b7160e01b600052604160045260246000fd5b6001600160a01b03811681146132b757600080fd5b80151581146132b757600080fdfeddf252ad1be2c89b69c2b068fc378daa952ba7f163c4a11628f55a4df523b3efa2646970667358221220df0869c32318158fe3bf49f7a764381ecfdae01f470511ea5db0fdcc9165946164736f6c63430008040033",
  "linkReferences": {},
  "deployedLinkReferences": {}
}