{
  "_format": "hh-sol-artifact-1",
  "contractName": "VaultAdaptorMK2",
  "sourceName": "contracts/VaultAdaptorMK2.sol",
  "abi": [
    {
      "inputs": [
        {
          "internalType": "address",
          "name": "_token",
          "type": "address"
        },
        {
          "internalType": "address",
          "name": "_bouncer",
          "type": "address"
        }
      ],
      "stateMutability": "nonpayable",
      "type": "constructor"
    },
    {
      "anonymous": false,
      "inputs": [
        {
          "indexed": true,
          "internalType": "address",
          "name": "owner",
          "type": "address"
        },
        {
          "indexed": true,
          "internalType": "address",
          "name": "spender",
          "type": "address"
        },
        {
          "indexed": false,
          "internalType": "uint256",
          "name": "value",
          "type": "uint256"
        }
      ],
      "name": "Approval",
      "type": "event"
    },
    {
      "anonymous": false,
      "inputs": [
        {
          "indexed": true,
          "internalType": "address",
          "name": "user",
          "type": "address"
        }
      ],
      "name": "LogAddToWhitelist",
      "type": "event"
    },
    {
      "anonymous": false,
      "inputs": [
        {
          "indexed": false,
          "internalType": "uint256[]",
          "name": "strategyRetios",
          "type": "uint256[]"
        }
      ],
      "name": "LogDebtRatios",
      "type": "event"
    },
    {
      "anonymous": false,
      "inputs": [
        {
          "indexed": true,
          "internalType": "address",
          "name": "from",
          "type": "address"
        },
        {
          "indexed": false,
          "internalType": "uint256",
          "name": "_amount",
          "type": "uint256"
        },
        {
          "indexed": false,
          "internalType": "uint256",
          "name": "shares",
          "type": "uint256"
        },
        {
          "indexed": false,
          "internalType": "uint256",
          "name": "allowance",
          "type": "uint256"
        }
      ],
      "name": "LogDeposit",
      "type": "event"
    },
    {
      "anonymous": false,
      "inputs": [
        {
          "indexed": false,
          "internalType": "uint256",
          "name": "newLimit",
          "type": "uint256"
        }
      ],
      "name": "LogDepositLimit",
      "type": "event"
    },
    {
      "anonymous": false,
      "inputs": [
        {
          "indexed": false,
          "internalType": "address",
          "name": "parent",
          "type": "address"
        },
        {
          "indexed": false,
          "internalType": "address",
          "name": "child",
          "type": "address"
        },
        {
          "indexed": false,
          "internalType": "uint256",
          "name": "amount",
          "type": "uint256"
        }
      ],
      "name": "LogMigrate",
      "type": "event"
    },
    {
      "anonymous": false,
      "inputs": [
        {
          "indexed": false,
          "internalType": "address",
          "name": "user",
          "type": "address"
        },
        {
          "indexed": false,
          "internalType": "uint256",
          "name": "amount",
          "type": "uint256"
        }
      ],
      "name": "LogNewAllowance",
      "type": "event"
    },
    {
      "anonymous": false,
      "inputs": [
        {
          "indexed": false,
          "internalType": "address",
          "name": "bouncer",
          "type": "address"
        }
      ],
      "name": "LogNewBouncer",
      "type": "event"
    },
    {
      "anonymous": false,
      "inputs": [
        {
          "indexed": true,
          "internalType": "address",
          "name": "strategy",
          "type": "address"
        },
        {
          "indexed": false,
          "internalType": "uint256",
          "name": "debtRatio",
          "type": "uint256"
        }
      ],
      "name": "LogNewDebtRatio",
      "type": "event"
    },
    {
      "anonymous": false,
      "inputs": [
        {
          "indexed": false,
          "internalType": "address",
          "name": "rewards",
          "type": "address"
        }
      ],
      "name": "LogNewRewards",
      "type": "event"
    },
    {
      "anonymous": false,
      "inputs": [
        {
          "indexed": false,
          "internalType": "bool",
          "name": "loss",
          "type": "bool"
        },
        {
          "indexed": false,
          "internalType": "uint256",
          "name": "change",
          "type": "uint256"
        }
      ],
      "name": "LogNewStrategyHarvest",
      "type": "event"
    },
    {
      "anonymous": false,
      "inputs": [
        {
          "indexed": false,
          "internalType": "uint256",
          "name": "vaultFee",
          "type": "uint256"
        }
      ],
      "name": "LogNewVaultFee",
      "type": "event"
    },
    {
      "anonymous": false,
      "inputs": [
        {
          "indexed": true,
          "internalType": "address",
          "name": "user",
          "type": "address"
        }
      ],
      "name": "LogRemoveFromWhitelist",
      "type": "event"
    },
    {
      "anonymous": false,
      "inputs": [
        {
          "indexed": true,
          "internalType": "address",
          "name": "strategy",
          "type": "address"
        },
        {
          "indexed": false,
          "internalType": "uint256",
          "name": "debtRatio",
          "type": "uint256"
        },
        {
          "indexed": false,
          "internalType": "uint256",
          "name": "minDebtPerHarvest",
          "type": "uint256"
        },
        {
          "indexed": false,
          "internalType": "uint256",
          "name": "maxDebtPerHarvest",
          "type": "uint256"
        }
      ],
      "name": "LogStrategyAdded",
      "type": "event"
    },
    {
      "anonymous": false,
      "inputs": [
        {
          "indexed": true,
          "internalType": "address",
          "name": "strategy",
          "type": "address"
        }
      ],
      "name": "LogStrategyAddedToQueue",
      "type": "event"
    },
    {
      "anonymous": false,
      "inputs": [
        {
          "indexed": true,
          "internalType": "address",
          "name": "newStrategy",
          "type": "address"
        },
        {
          "indexed": true,
          "internalType": "address",
          "name": "oldStrategy",
          "type": "address"
        }
      ],
      "name": "LogStrategyMigrated",
      "type": "event"
    },
    {
      "anonymous": false,
      "inputs": [
        {
          "indexed": true,
          "internalType": "address",
          "name": "strategy",
          "type": "address"
        }
      ],
      "name": "LogStrategyRemovedFromQueue",
      "type": "event"
    },
    {
      "anonymous": false,
      "inputs": [
        {
          "indexed": true,
          "internalType": "address",
          "name": "strategy",
          "type": "address"
        },
        {
          "indexed": false,
          "internalType": "uint256",
          "name": "gain",
          "type": "uint256"
        },
        {
          "indexed": false,
          "internalType": "uint256",
          "name": "loss",
          "type": "uint256"
        },
        {
          "indexed": false,
          "internalType": "uint256",
          "name": "debtPaid",
          "type": "uint256"
        },
        {
          "indexed": false,
          "internalType": "uint256",
          "name": "totalGain",
          "type": "uint256"
        },
        {
          "indexed": false,
          "internalType": "uint256",
          "name": "totalLoss",
          "type": "uint256"
        },
        {
          "indexed": false,
          "internalType": "uint256",
          "name": "totalDebt",
          "type": "uint256"
        },
        {
          "indexed": false,
          "internalType": "uint256",
          "name": "debtAdded",
          "type": "uint256"
        },
        {
          "indexed": false,
          "internalType": "uint256",
          "name": "debtRatio",
          "type": "uint256"
        }
      ],
      "name": "LogStrategyReported",
      "type": "event"
    },
    {
      "anonymous": false,
      "inputs": [
        {
          "indexed": true,
          "internalType": "address",
          "name": "strategy",
          "type": "address"
        }
      ],
      "name": "LogStrategyRevoked",
      "type": "event"
    },
    {
      "anonymous": false,
      "inputs": [
        {
          "indexed": true,
          "internalType": "address",
          "name": "strategy",
          "type": "address"
        },
        {
          "indexed": false,
          "internalType": "bool",
          "name": "status",
          "type": "bool"
        }
      ],
      "name": "LogStrategyStatusUpdate",
      "type": "event"
    },
    {
      "anonymous": false,
      "inputs": [
        {
          "indexed": true,
          "internalType": "address",
          "name": "strategy",
          "type": "address"
        },
        {
          "indexed": false,
          "internalType": "uint256",
          "name": "maxDebtPerHarvest",
          "type": "uint256"
        }
      ],
      "name": "LogStrategyUpdateMaxDebtPerHarvest",
      "type": "event"
    },
    {
      "anonymous": false,
      "inputs": [
        {
          "indexed": true,
          "internalType": "address",
          "name": "strategy",
          "type": "address"
        },
        {
          "indexed": false,
          "internalType": "uint256",
          "name": "minDebtPerHarvest",
          "type": "uint256"
        }
      ],
      "name": "LogStrategyUpdateMinDebtPerHarvest",
      "type": "event"
    },
    {
      "anonymous": false,
      "inputs": [
        {
          "indexed": false,
          "internalType": "address[]",
          "name": "queue",
          "type": "address[]"
        }
      ],
      "name": "LogUpdateWithdrawalQueue",
      "type": "event"
    },
    {
      "anonymous": false,
      "inputs": [
        {
          "indexed": true,
          "internalType": "address",
          "name": "from",
          "type": "address"
        },
        {
          "indexed": false,
          "internalType": "uint256",
          "name": "value",
          "type": "uint256"
        },
        {
          "indexed": false,
          "internalType": "uint256",
          "name": "shares",
          "type": "uint256"
        },
        {
          "indexed": false,
          "internalType": "uint256",
          "name": "totalLoss",
          "type": "uint256"
        },
        {
          "indexed": false,
          "internalType": "uint256",
          "name": "allowance",
          "type": "uint256"
        }
      ],
      "name": "LogWithdrawal",
      "type": "event"
    },
    {
      "anonymous": false,
      "inputs": [
        {
          "indexed": true,
          "internalType": "address",
          "name": "previousOwner",
          "type": "address"
        },
        {
          "indexed": true,
          "internalType": "address",
          "name": "newOwner",
          "type": "address"
        }
      ],
      "name": "OwnershipTransferred",
      "type": "event"
    },
    {
      "anonymous": false,
      "inputs": [
        {
          "indexed": true,
          "internalType": "address",
          "name": "from",
          "type": "address"
        },
        {
          "indexed": true,
          "internalType": "address",
          "name": "to",
          "type": "address"
        },
        {
          "indexed": false,
          "internalType": "uint256",
          "name": "value",
          "type": "uint256"
        }
      ],
      "name": "Transfer",
      "type": "event"
    },
    {
      "inputs": [],
      "name": "MAXIMUM_STRATEGIES",
      "outputs": [
        {
          "internalType": "uint256",
          "name": "",
          "type": "uint256"
        }
      ],
      "stateMutability": "view",
      "type": "function"
    },
    {
      "inputs": [],
      "name": "activation",
      "outputs": [
        {
          "internalType": "uint256",
          "name": "",
          "type": "uint256"
        }
      ],
      "stateMutability": "view",
      "type": "function"
    },
    {
      "inputs": [
        {
          "internalType": "address",
          "name": "_strategy",
          "type": "address"
        },
        {
          "internalType": "uint256",
          "name": "_debtRatio",
          "type": "uint256"
        },
        {
          "internalType": "uint256",
          "name": "_minDebtPerHarvest",
          "type": "uint256"
        },
        {
          "internalType": "uint256",
          "name": "_maxDebtPerHarvest",
          "type": "uint256"
        }
      ],
      "name": "addStrategy",
      "outputs": [],
      "stateMutability": "nonpayable",
      "type": "function"
    },
    {
      "inputs": [
        {
          "internalType": "address",
          "name": "_strategy",
          "type": "address"
        }
      ],
      "name": "addStrategyToQueue",
      "outputs": [],
      "stateMutability": "nonpayable",
      "type": "function"
    },
    {
      "inputs": [
        {
          "internalType": "address",
          "name": "user",
          "type": "address"
        }
      ],
      "name": "addToWhitelist",
      "outputs": [],
      "stateMutability": "nonpayable",
      "type": "function"
    },
    {
      "inputs": [
        {
          "internalType": "address",
          "name": "owner",
          "type": "address"
        },
        {
          "internalType": "address",
          "name": "spender",
          "type": "address"
        }
      ],
      "name": "allowance",
      "outputs": [
        {
          "internalType": "uint256",
          "name": "",
          "type": "uint256"
        }
      ],
      "stateMutability": "view",
      "type": "function"
    },
    {
      "inputs": [
        {
          "internalType": "address",
          "name": "spender",
          "type": "address"
        },
        {
          "internalType": "uint256",
          "name": "amount",
          "type": "uint256"
        }
      ],
      "name": "approve",
      "outputs": [
        {
          "internalType": "bool",
          "name": "",
          "type": "bool"
        }
      ],
      "stateMutability": "nonpayable",
      "type": "function"
    },
    {
      "inputs": [
        {
          "internalType": "address",
          "name": "account",
          "type": "address"
        }
      ],
      "name": "balanceOf",
      "outputs": [
        {
          "internalType": "uint256",
          "name": "",
          "type": "uint256"
        }
      ],
      "stateMutability": "view",
      "type": "function"
    },
    {
      "inputs": [],
      "name": "bouncer",
      "outputs": [
        {
          "internalType": "address",
          "name": "",
          "type": "address"
        }
      ],
      "stateMutability": "view",
      "type": "function"
    },
    {
      "inputs": [],
      "name": "creditAvailable",
      "outputs": [
        {
          "internalType": "uint256",
          "name": "",
          "type": "uint256"
        }
      ],
      "stateMutability": "view",
      "type": "function"
    },
    {
      "inputs": [
        {
          "internalType": "address",
          "name": "_strategy",
          "type": "address"
        }
      ],
      "name": "creditAvailable",
      "outputs": [
        {
          "internalType": "uint256",
          "name": "",
          "type": "uint256"
        }
      ],
      "stateMutability": "view",
      "type": "function"
    },
    {
      "inputs": [
        {
          "internalType": "address",
          "name": "_strategy",
          "type": "address"
        }
      ],
      "name": "debtOutstanding",
      "outputs": [
        {
          "internalType": "uint256",
          "name": "",
          "type": "uint256"
        }
      ],
      "stateMutability": "view",
      "type": "function"
    },
    {
      "inputs": [],
      "name": "debtOutstanding",
      "outputs": [
        {
          "internalType": "uint256",
          "name": "",
          "type": "uint256"
        }
      ],
      "stateMutability": "view",
      "type": "function"
    },
    {
      "inputs": [],
      "name": "debtRatio",
      "outputs": [
        {
          "internalType": "uint256",
          "name": "",
          "type": "uint256"
        }
      ],
      "stateMutability": "view",
      "type": "function"
    },
    {
      "inputs": [],
      "name": "decimals",
      "outputs": [
        {
          "internalType": "uint8",
          "name": "",
          "type": "uint8"
        }
      ],
      "stateMutability": "view",
      "type": "function"
    },
    {
      "inputs": [
        {
          "internalType": "address",
          "name": "spender",
          "type": "address"
        },
        {
          "internalType": "uint256",
          "name": "subtractedValue",
          "type": "uint256"
        }
      ],
      "name": "decreaseAllowance",
      "outputs": [
        {
          "internalType": "bool",
          "name": "",
          "type": "bool"
        }
      ],
      "stateMutability": "nonpayable",
      "type": "function"
    },
    {
      "inputs": [
        {
          "internalType": "uint256",
          "name": "_amount",
          "type": "uint256"
        }
      ],
      "name": "deposit",
      "outputs": [
        {
          "internalType": "uint256",
          "name": "",
          "type": "uint256"
        }
      ],
      "stateMutability": "nonpayable",
      "type": "function"
    },
    {
      "inputs": [],
      "name": "depositLimit",
      "outputs": [
        {
          "internalType": "uint256",
          "name": "",
          "type": "uint256"
        }
      ],
      "stateMutability": "view",
      "type": "function"
    },
    {
      "inputs": [],
      "name": "getPricePerShare",
      "outputs": [
        {
          "internalType": "uint256",
          "name": "",
          "type": "uint256"
        }
      ],
      "stateMutability": "view",
      "type": "function"
    },
    {
      "inputs": [],
      "name": "getStrategiesLength",
      "outputs": [
        {
          "internalType": "uint256",
          "name": "",
          "type": "uint256"
        }
      ],
      "stateMutability": "view",
      "type": "function"
    },
    {
      "inputs": [
        {
          "internalType": "uint256",
          "name": "_index",
          "type": "uint256"
        }
      ],
      "name": "getStrategyAssets",
      "outputs": [
        {
          "internalType": "uint256",
          "name": "amount",
          "type": "uint256"
        }
      ],
      "stateMutability": "view",
      "type": "function"
    },
    {
      "inputs": [
        {
          "internalType": "address",
          "name": "spender",
          "type": "address"
        },
        {
          "internalType": "uint256",
          "name": "addedValue",
          "type": "uint256"
        }
      ],
      "name": "increaseAllowance",
      "outputs": [
        {
          "internalType": "bool",
          "name": "",
          "type": "bool"
        }
      ],
      "stateMutability": "nonpayable",
      "type": "function"
    },
    {
      "inputs": [],
      "name": "lastReport",
      "outputs": [
        {
          "internalType": "uint256",
          "name": "",
          "type": "uint256"
        }
      ],
      "stateMutability": "view",
      "type": "function"
    },
    {
      "inputs": [
        {
          "internalType": "address",
          "name": "_oldVersion",
          "type": "address"
        },
        {
          "internalType": "address",
          "name": "_newVersion",
          "type": "address"
        }
      ],
      "name": "migrateStrategy",
      "outputs": [],
      "stateMutability": "nonpayable",
      "type": "function"
    },
    {
      "inputs": [],
      "name": "name",
      "outputs": [
        {
          "internalType": "string",
          "name": "",
          "type": "string"
        }
      ],
      "stateMutability": "view",
      "type": "function"
    },
    {
      "inputs": [],
      "name": "owner",
      "outputs": [
        {
          "internalType": "address",
          "name": "",
          "type": "address"
        }
      ],
      "stateMutability": "view",
      "type": "function"
    },
    {
      "inputs": [
        {
          "internalType": "address",
          "name": "user",
          "type": "address"
        }
      ],
      "name": "removeFromWhitelist",
      "outputs": [],
      "stateMutability": "nonpayable",
      "type": "function"
    },
    {
      "inputs": [
        {
          "internalType": "address",
          "name": "_strategy",
          "type": "address"
        }
      ],
      "name": "removeStrategyFromQueue",
      "outputs": [],
      "stateMutability": "nonpayable",
      "type": "function"
    },
    {
      "inputs": [],
      "name": "renounceOwnership",
      "outputs": [],
      "stateMutability": "nonpayable",
      "type": "function"
    },
    {
      "inputs": [
        {
          "internalType": "uint256",
          "name": "_gain",
          "type": "uint256"
        },
        {
          "internalType": "uint256",
          "name": "_loss",
          "type": "uint256"
        },
        {
          "internalType": "uint256",
          "name": "_debtPayment",
          "type": "uint256"
        }
      ],
      "name": "report",
      "outputs": [
        {
          "internalType": "uint256",
          "name": "",
          "type": "uint256"
        }
      ],
      "stateMutability": "nonpayable",
      "type": "function"
    },
    {
      "inputs": [],
      "name": "revokeStrategy",
      "outputs": [],
      "stateMutability": "nonpayable",
      "type": "function"
    },
    {
      "inputs": [],
      "name": "rewards",
      "outputs": [
        {
          "internalType": "address",
          "name": "",
          "type": "address"
        }
      ],
      "stateMutability": "view",
      "type": "function"
    },
    {
      "inputs": [
        {
          "internalType": "address",
          "name": "_bouncer",
          "type": "address"
        }
      ],
      "name": "setBouncer",
      "outputs": [],
      "stateMutability": "nonpayable",
      "type": "function"
    },
    {
      "inputs": [
        {
          "internalType": "address",
          "name": "_strategy",
          "type": "address"
        },
        {
          "internalType": "uint256",
          "name": "_debtRatio",
          "type": "uint256"
        }
      ],
      "name": "setDebtRatio",
      "outputs": [],
      "stateMutability": "nonpayable",
      "type": "function"
    },
    {
      "inputs": [
        {
          "internalType": "uint256[]",
          "name": "_strategyDebtRatios",
          "type": "uint256[]"
        }
      ],
      "name": "setDebtRatios",
      "outputs": [],
      "stateMutability": "nonpayable",
      "type": "function"
    },
    {
      "inputs": [
        {
          "internalType": "uint256",
          "name": "_newLimit",
          "type": "uint256"
        }
      ],
      "name": "setDepositLimit",
      "outputs": [],
      "stateMutability": "nonpayable",
      "type": "function"
    },
    {
      "inputs": [
        {
          "internalType": "address",
          "name": "_rewards",
          "type": "address"
        }
      ],
      "name": "setRewards",
      "outputs": [],
      "stateMutability": "nonpayable",
      "type": "function"
    },
    {
      "inputs": [
        {
          "internalType": "address",
          "name": "_user",
          "type": "address"
        },
        {
          "internalType": "uint256",
          "name": "_amount",
          "type": "uint256"
        }
      ],
      "name": "setUserAllowance",
      "outputs": [],
      "stateMutability": "nonpayable",
      "type": "function"
    },
    {
      "inputs": [
        {
          "internalType": "uint256",
          "name": "_fee",
          "type": "uint256"
        }
      ],
      "name": "setVaultFee",
      "outputs": [],
      "stateMutability": "nonpayable",
      "type": "function"
    },
    {
      "inputs": [
        {
          "internalType": "address[]",
          "name": "_queue",
          "type": "address[]"
        }
      ],
      "name": "setWithdrawalQueue",
      "outputs": [],
      "stateMutability": "nonpayable",
      "type": "function"
    },
    {
      "inputs": [
        {
          "internalType": "address",
          "name": "",
          "type": "address"
        }
      ],
      "name": "strategies",
      "outputs": [
        {
          "internalType": "uint256",
          "name": "activation",
          "type": "uint256"
        },
        {
          "internalType": "bool",
          "name": "active",
          "type": "bool"
        },
        {
          "internalType": "uint256",
          "name": "debtRatio",
          "type": "uint256"
        },
        {
          "internalType": "uint256",
          "name": "minDebtPerHarvest",
          "type": "uint256"
        },
        {
          "internalType": "uint256",
          "name": "maxDebtPerHarvest",
          "type": "uint256"
        },
        {
          "internalType": "uint256",
          "name": "lastReport",
          "type": "uint256"
        },
        {
          "internalType": "uint256",
          "name": "totalDebt",
          "type": "uint256"
        },
        {
          "internalType": "uint256",
          "name": "totalGain",
          "type": "uint256"
        },
        {
          "internalType": "uint256",
          "name": "totalLoss",
          "type": "uint256"
        }
      ],
      "stateMutability": "view",
      "type": "function"
    },
    {
      "inputs": [],
      "name": "strategyDebt",
      "outputs": [
        {
          "internalType": "uint256",
          "name": "",
          "type": "uint256"
        }
      ],
      "stateMutability": "view",
      "type": "function"
    },
    {
      "inputs": [
        {
          "internalType": "uint256",
          "name": "_index",
          "type": "uint256"
        },
        {
          "internalType": "address[]",
          "name": "_tokens",
          "type": "address[]"
        },
        {
          "internalType": "uint256[]",
          "name": "_minAmounts",
          "type": "uint256[]"
        }
      ],
      "name": "strategyHarvest",
      "outputs": [],
      "stateMutability": "nonpayable",
      "type": "function"
    },
    {
      "inputs": [
        {
          "internalType": "uint256",
          "name": "_index",
          "type": "uint256"
        },
        {
          "internalType": "uint256",
          "name": "_callCost",
          "type": "uint256"
        }
      ],
      "name": "strategyHarvestTrigger",
      "outputs": [
        {
          "internalType": "bool",
          "name": "",
          "type": "bool"
        }
      ],
      "stateMutability": "view",
      "type": "function"
    },
    {
      "inputs": [
        {
          "internalType": "address",
          "name": "_token",
          "type": "address"
        },
        {
          "internalType": "address",
          "name": "_recipient",
          "type": "address"
        }
      ],
      "name": "sweep",
      "outputs": [],
      "stateMutability": "nonpayable",
      "type": "function"
    },
    {
      "inputs": [],
      "name": "symbol",
      "outputs": [
        {
          "internalType": "string",
          "name": "",
          "type": "string"
        }
      ],
      "stateMutability": "view",
      "type": "function"
    },
    {
      "inputs": [],
      "name": "token",
      "outputs": [
        {
          "internalType": "address",
          "name": "",
          "type": "address"
        }
      ],
      "stateMutability": "view",
      "type": "function"
    },
    {
      "inputs": [],
      "name": "totalAssets",
      "outputs": [
        {
          "internalType": "uint256",
          "name": "",
          "type": "uint256"
        }
      ],
      "stateMutability": "view",
      "type": "function"
    },
    {
      "inputs": [],
      "name": "totalDebt",
      "outputs": [
        {
          "internalType": "uint256",
          "name": "",
          "type": "uint256"
        }
      ],
      "stateMutability": "view",
      "type": "function"
    },
    {
      "inputs": [],
      "name": "totalEstimatedAssets",
      "outputs": [
        {
          "internalType": "uint256",
          "name": "",
          "type": "uint256"
        }
      ],
      "stateMutability": "view",
      "type": "function"
    },
    {
      "inputs": [],
      "name": "totalSupply",
      "outputs": [
        {
          "internalType": "uint256",
          "name": "",
          "type": "uint256"
        }
      ],
      "stateMutability": "view",
      "type": "function"
    },
    {
      "inputs": [
        {
          "internalType": "address",
          "name": "recipient",
          "type": "address"
        },
        {
          "internalType": "uint256",
          "name": "amount",
          "type": "uint256"
        }
      ],
      "name": "transfer",
      "outputs": [
        {
          "internalType": "bool",
          "name": "",
          "type": "bool"
        }
      ],
      "stateMutability": "nonpayable",
      "type": "function"
    },
    {
      "inputs": [
        {
          "internalType": "address",
          "name": "sender",
          "type": "address"
        },
        {
          "internalType": "address",
          "name": "recipient",
          "type": "address"
        },
        {
          "internalType": "uint256",
          "name": "amount",
          "type": "uint256"
        }
      ],
      "name": "transferFrom",
      "outputs": [
        {
          "internalType": "bool",
          "name": "",
          "type": "bool"
        }
      ],
      "stateMutability": "nonpayable",
      "type": "function"
    },
    {
      "inputs": [
        {
          "internalType": "address",
          "name": "newOwner",
          "type": "address"
        }
      ],
      "name": "transferOwnership",
      "outputs": [],
      "stateMutability": "nonpayable",
      "type": "function"
    },
    {
      "inputs": [
        {
          "internalType": "address",
          "name": "_strategy",
          "type": "address"
        },
        {
          "internalType": "uint256",
          "name": "_maxDebtPerHarvest",
          "type": "uint256"
        }
      ],
      "name": "updateStrategyMaxDebtPerHarvest",
      "outputs": [],
      "stateMutability": "nonpayable",
      "type": "function"
    },
    {
      "inputs": [
        {
          "internalType": "address",
          "name": "_strategy",
          "type": "address"
        },
        {
          "internalType": "uint256",
          "name": "_minDebtPerHarvest",
          "type": "uint256"
        }
      ],
      "name": "updateStrategyMinDebtPerHarvest",
      "outputs": [],
      "stateMutability": "nonpayable",
      "type": "function"
    },
    {
      "inputs": [
        {
          "internalType": "address",
          "name": "",
          "type": "address"
        }
      ],
      "name": "userAllowance",
      "outputs": [
        {
          "internalType": "uint256",
          "name": "",
          "type": "uint256"
        }
      ],
      "stateMutability": "view",
      "type": "function"
    },
    {
      "inputs": [],
      "name": "vaultFee",
      "outputs": [
        {
          "internalType": "uint256",
          "name": "",
          "type": "uint256"
        }
      ],
      "stateMutability": "view",
      "type": "function"
    },
    {
      "inputs": [
        {
          "internalType": "address",
          "name": "",
          "type": "address"
        }
      ],
      "name": "whitelist",
      "outputs": [
        {
          "internalType": "bool",
          "name": "",
          "type": "bool"
        }
      ],
      "stateMutability": "view",
      "type": "function"
    },
    {
      "inputs": [
        {
          "internalType": "uint256",
          "name": "_shares",
          "type": "uint256"
        },
        {
          "internalType": "uint256",
          "name": "_maxLoss",
          "type": "uint256"
        }
      ],
      "name": "withdraw",
      "outputs": [
        {
          "internalType": "uint256",
          "name": "",
          "type": "uint256"
        }
      ],
      "stateMutability": "nonpayable",
      "type": "function"
    },
    {
      "inputs": [
        {
          "internalType": "uint256",
          "name": "",
          "type": "uint256"
        }
      ],
      "name": "withdrawalQueue",
      "outputs": [
        {
          "internalType": "address",
          "name": "",
          "type": "address"
        }
      ],
      "stateMutability": "view",
      "type": "function"
    }
  ],
  "bytecode": "0x60c06040523480156200001157600080fd5b506040516200577938038062005779833981016040819052620000349162000379565b816001600160a01b03166395d89b416040518163ffffffff1660e01b815260040160006040518083038186803b1580156200006e57600080fd5b505afa15801562000083573d6000803e3d6000fd5b505050506040513d6000823e601f3d908101601f19168201604052620000ad9190810190620003b0565b604051602001620000bf9190620004bb565b604051602081830303815290604052826001600160a01b03166395d89b416040518163ffffffff1660e01b815260040160006040518083038186803b1580156200010857600080fd5b505afa1580156200011d573d6000803e3d6000fd5b505050506040513d6000823e601f3d908101601f19168201604052620001479190810190620003b0565b6040516020016200015991906200048e565b60408051808303601f19018152919052620001743362000266565b815162000189906005906020850190620002b6565b5080516200019f906006906020840190620002b6565b50506001600755506001600160601b0319606083901b16608052426012556040805163313ce56760e01b815290516001600160a01b0384169163313ce567916004808301926020929190829003018186803b158015620001fe57600080fd5b505afa15801562000213573d6000803e3d6000fd5b505050506040513d601f19601f8201168201806040525081019062000239919062000464565b60ff1660a052601480546001600160a01b0319166001600160a01b0392909216919091179055506200057d565b600080546001600160a01b038381166001600160a01b0319831681178455604051919092169283917f8be0079c531659141344cd1fd0a4f28419497f9722a3daafe3b4186f6b6457e09190a35050565b828054620002c4906200052a565b90600052602060002090601f016020900481019282620002e8576000855562000333565b82601f106200030357805160ff191683800117855562000333565b8280016001018555821562000333579182015b828111156200033357825182559160200191906001019062000316565b506200034192915062000345565b5090565b5b8082111562000341576000815560010162000346565b80516001600160a01b03811681146200037457600080fd5b919050565b600080604083850312156200038c578182fd5b62000397836200035c565b9150620003a7602084016200035c565b90509250929050565b600060208284031215620003c2578081fd5b81516001600160401b0380821115620003d9578283fd5b818401915084601f830112620003ed578283fd5b81518181111562000402576200040262000567565b604051601f8201601f19908116603f011681019083821181831017156200042d576200042d62000567565b8160405282815287602084870101111562000446578586fd5b62000459836020830160208801620004f7565b979650505050505050565b60006020828403121562000476578081fd5b815160ff8116811462000487578182fd5b9392505050565b6267726f60e81b815260008251620004ae816003850160208701620004f7565b9190910160030192915050565b63023b937960e51b815260008251620004dc816004850160208701620004f7565b63102630b160e11b6004939091019283015250600801919050565b60005b8381101562000514578181015183820152602001620004fa565b8381111562000524576000848401525b50505050565b600181811c908216806200053f57607f821691505b602082108114156200056157634e487b7160e01b600052602260045260246000fd5b50919050565b634e487b7160e01b600052604160045260246000fd5b60805160601c60a051615194620005e56000396000818161048201528181610f07015261382d0152600081816108b1015281816110a6015281816122bc01528181612b4801528181612c2801528181612de6015281816138f40152613cec01526151946000f3fe608060405234801561001057600080fd5b50600436106103af5760003560e01c80639ec5a894116101f4578063cab208081161011a578063ec38a862116100ad578063f76e4caa1161007c578063f76e4caa14610886578063fb0fc07614610899578063fc0c546a146108ac578063fc7b9c18146108d357600080fd5b8063ec38a86214610844578063ecf7085814610857578063f2fde38b14610860578063f6bad0e31461087357600080fd5b8063e04e7341116100e9578063e04e7341146107f8578063e43252d71461080b578063e438c4b71461081e578063e722befe1461083157600080fd5b8063cab208081461079b578063cea55f57146107a3578063d7648013146107ac578063dd62ed3e146107bf57600080fd5b8063b6b55f2511610192578063bf3759b511610161578063bf3759b514610764578063c3535b521461076c578063c533683514610775578063c822adda1461078857600080fd5b8063b6b55f2514610718578063b8dc491b1461072b578063bdc8144b1461073e578063bdcf36bb1461075157600080fd5b8063a457c2d7116101ce578063a457c2d7146106cc578063a9059cbb146106df578063ac579b77146106f2578063b22439f51461070557600080fd5b80639ec5a8941461069e578063a0e4af9a146106b1578063a1d9bafc146106b957600080fd5b80633e9dc762116102d9578063772d2312116102775780638da5cb5b116102465780638da5cb5b1461064657806395d89b411461066b5780639666b83b146106735780639b19251a1461067b57600080fd5b8063772d2312146106055780637a73964c1461060d5780638ab1d681146106205780638c3d78191461063357600080fd5b80635cb44e25116102b35780635cb44e25146105ae5780636cb56d19146105c157806370a08231146105d4578063715018a6146105fd57600080fd5b80633e9dc76214610570578063441a3e70146105885780634757a1561461059b57600080fd5b806315712216116103515780633629c8de116103205780633629c8de146104ac57806339509351146104b557806339ebf823146104c85780633d68175c1461056857600080fd5b8063157122161461044d57806318160ddd1461046057806323b872dd14610468578063313ce5671461047b57600080fd5b8063095ea7b31161038d578063095ea7b3146103ed5780630c6b2cbf146104105780630dd21b6c14610430578063112c1f9b1461044557600080fd5b806301ac145b146103b457806301e1d114146103d057806306fdde03146103d8575b600080fd5b6103bd60165481565b6040519081526020015b60405180910390f35b6103bd6108dc565b6103e06108eb565b6040516103c79190614e44565b6104006103fb366004614b68565b61097d565b60405190151581526020016103c7565b6103bd61041e366004614ab8565b60096020526000908152604090205481565b61044361043e366004614b93565b610994565b005b6103bd610d8b565b61044361045b366004614ab8565b610d96565b6004546103bd565b610400610476366004614b28565b610e15565b60405160ff7f00000000000000000000000000000000000000000000000000000000000000001681526020016103c7565b6103bd60125481565b6104006104c3366004614b68565b610ec1565b6105246104d6366004614ab8565b6008602081905260009182526040909120805460018201546002830154600384015460048501546005860154600687015460078801549790980154959760ff90951696939592949193909289565b60408051998a5297151560208a0152968801959095526060870193909352608086019190915260a085015260c084015260e0830152610100820152610120016103c7565b6103bd610efd565b336000908152600860205260409020600601546103bd565b6103bd610596366004614d8e565b610f32565b6104436105a9366004614b68565b6115d3565b6104006105bc366004614d8e565b611750565b6104436105cf366004614af0565b611834565b6103bd6105e2366004614ab8565b6001600160a01b031660009081526002602052604090205490565b610443611bfc565b6103bd600581565b61044361061b366004614cc0565b611c32565b61044361062e366004614ab8565b612069565b610443610641366004614c90565b612122565b6000546001600160a01b03165b6040516001600160a01b0390911681526020016103c7565b6103e06121d2565b6103bd6121e1565b610400610689366004614ab8565b60016020526000908152604090205460ff1681565b601554610653906001600160a01b031681565b6104436121eb565b6103bd6106c7366004614daf565b612262565b6104006106da366004614b68565b612659565b6104006106ed366004614b68565b6126f2565b610443610700366004614bcd565b6126ff565b610443610713366004614ab8565b6128ab565b6103bd610726366004614c90565b612a0d565b610443610739366004614af0565b612bfc565b61044361074c366004614c90565b612d2f565b6103bd61075f366004614ab8565b612d8e565b6103bd612d99565b6103bd60115481565b601454610653906001600160a01b031681565b610653610796366004614c90565b612da4565b6103bd612dc4565b6103bd600f5481565b6103bd6107ba366004614ab8565b612ea1565b6103bd6107cd366004614af0565b6001600160a01b03918216600090815260036020908152604080832093909416825291909152205490565b6103bd610806366004614c90565b612eac565b610443610819366004614ab8565b612eb7565b61044361082c366004614b68565b612f76565b61044361083f366004614b68565b6130b4565b610443610852366004614ab8565b613225565b6103bd60135481565b61044361086e366004614ab8565b61329d565b610443610881366004614c3d565b613338565b610443610894366004614ab8565b6134f5565b6104436108a7366004614b68565b6137be565b6106537f000000000000000000000000000000000000000000000000000000000000000081565b6103bd60105481565b60006108e66138d0565b905090565b6060600580546108fa906150cd565b80601f0160208091040260200160405190810160405280929190818152602001828054610926906150cd565b80156109735780601f1061094857610100808354040283529160200191610973565b820191906000526020600020905b81548152906001019060200180831161095657829003601f168201915b5050505050905090565b600061098a338484613978565b5060015b92915050565b6000546001600160a01b031633146109c75760405162461bcd60e51b81526004016109be90614e77565b60405180910390fd5b6000600a6109d76001600561508a565b600581106109f557634e487b7160e01b600052603260045260246000fd5b01546001600160a01b031614610a575760405162461bcd60e51b815260206004820152602160248201527f61646453747261746567793a203e204d4158494d554d5f5354524154454749456044820152605360f81b60648201526084016109be565b6001600160a01b038416610aad5760405162461bcd60e51b815260206004820152601860248201527f61646453747261746567793a206164647265737328307829000000000000000060448201526064016109be565b6001600160a01b03841660009081526008602052604090206001015460ff1615610b195760405162461bcd60e51b815260206004820152601760248201527f61646453747261746567793a202161637469766174656400000000000000000060448201526064016109be565b836001600160a01b031663fbfa77cf6040518163ffffffff1660e01b815260040160206040518083038186803b158015610b5257600080fd5b505afa158015610b66573d6000803e3d6000fd5b505050506040513d601f19601f82011682018060405250810190610b8a9190614ad4565b6001600160a01b0316306001600160a01b031614610be05760405162461bcd60e51b815260206004820152601360248201527218591914dd1c985d1959de4e88085d985d5b1d606a1b60448201526064016109be565b610bec6004600a614fbf565b83600f54610bfa9190614f38565b1115610c485760405162461bcd60e51b815260206004820152601d60248201527f61646453747261746567793a2064656274526174696f203e203130302500000060448201526064016109be565b80821115610c915760405162461bcd60e51b81526020600482015260166024820152750c2c8c8a6e8e4c2e8cacef27440dad2dc407c40dac2f60531b60448201526064016109be565b6001600160a01b038416600081815260086020908152604091829020428082556001808301805460ff19169091179055600282018890556003820187905560048201869055600582015582518781529182018690529181018490529091907f3586d47464d021baa33927385fac3386971b58ccfe7f5dfe4c837d38f8910c759060600160405180910390a283600f6000828254610d2e9190614f38565b90915550859050600a610d3f613a9c565b60058110610d5d57634e487b7160e01b600052603260045260246000fd5b0180546001600160a01b0319166001600160a01b0392909216919091179055610d84613afc565b5050505050565b60006108e633613bf6565b6000546001600160a01b03163314610dc05760405162461bcd60e51b81526004016109be90614e77565b601480546001600160a01b0319166001600160a01b0383169081179091556040519081527f37fc88d041ee44a8c99855f5123550d8063586b8943d755664fe21853a37ded6906020015b60405180910390a150565b6000610e22848484613e07565b6001600160a01b038416600090815260036020908152604080832033845290915290205482811015610ea75760405162461bcd60e51b815260206004820152602860248201527f45524332303a207472616e7366657220616d6f756e74206578636565647320616044820152676c6c6f77616e636560c01b60648201526084016109be565b610eb48533858403613978565b60019150505b9392505050565b3360008181526003602090815260408083206001600160a01b0387168452909152812054909161098a918590610ef8908690614f38565b613978565b60006108e6610f2d7f0000000000000000000000000000000000000000000000000000000000000000600a614fb3565b613fd7565b600060026007541415610f575760405162461bcd60e51b81526004016109be90614eac565b6002600755610f686004600a614fbf565b821115610fb75760405162461bcd60e51b815260206004820152601960248201527f77697468647261773a205f6d61784c6f7373203e20313030250000000000000060448201526064016109be565b600083116110005760405162461bcd60e51b8152602060048201526016602482015275077697468647261773a205f736861726573203d3d20360541b60448201526064016109be565b336000908152600260205260408120549060001985146110205784611031565b336000908152600260205260409020545b9050818111156110835760405162461bcd60e51b815260206004820152601e60248201527f77697468647261772c20736861726573203e207573657242616c616e6365000060448201526064016109be565b600061108e82613fd7565b6040516370a0823160e01b81523060048201529091507f0000000000000000000000000000000000000000000000000000000000000000906000906001600160a01b038316906370a082319060240160206040518083038186803b1580156110f557600080fd5b505afa158015611109573d6000803e3d6000fd5b505050506040513d601f19601f8201168201806040525081019061112d9190614ca8565b83111561151f576040805160a0810191829052600091600a9060059082845b81546001600160a01b0316815260019091019060200180831161114c575050505050905060005b600581101561140657600082826005811061119e57634e487b7160e01b600052603260045260246000fd5b602002015190506001600160a01b0381166111b95750611406565b6040516370a0823160e01b81523060048201526000906001600160a01b038716906370a082319060240160206040518083038186803b1580156111fb57600080fd5b505afa15801561120f573d6000803e3d6000fd5b505050506040513d601f19601f820116820180604052508101906112339190614ca8565b9050808711611243575050611406565b600061124f828961508a565b6001600160a01b038416600090815260086020526040902060068101549192509061127b90839061400e565b91508161128b57505050506113f4565b604051632e1a7d4d60e01b8152600481018390526000906001600160a01b03861690632e1a7d4d90602401602060405180830381600087803b1580156112d057600080fd5b505af11580156112e4573d6000803e3d6000fd5b505050506040513d601f19601f820116820180604052508101906113089190614ca8565b6040516370a0823160e01b815230600482015290915060009085906001600160a01b038c16906370a082319060240160206040518083038186803b15801561134f57600080fd5b505afa158015611363573d6000803e3d6000fd5b505050506040513d601f19601f820116820180604052508101906113879190614ca8565b611391919061508a565b905081156113bb576113a3828c61508a565b9a506113af828a614f38565b98506113bb8683614024565b808360060160008282546113cf919061508a565b9250508190555080601060008282546113e8919061508a565b90915550505050505050505b806113fe81615102565b915050611173565b506040516370a0823160e01b81523060048201526000906001600160a01b038516906370a082319060240160206040518083038186803b15801561144957600080fd5b505afa15801561145d573d6000803e3d6000fd5b505050506040513d601f19601f820116820180604052508101906114819190614ca8565b9050808511156114a3579350836114a061149b8483614f38565b6140e2565b95505b6114af6004600a614fbf565b6114b98487614f38565b6114c3908b61506b565b6114cd9190614f50565b83111561151c5760405162461bcd60e51b815260206004820152601860248201527f77697468647261773a206c6f7373203e206d61786c6f7373000000000000000060448201526064016109be565b50505b6115293385614108565b61153d6001600160a01b0383163385614256565b60006115498285614f38565b336000908152600960205260409020546115639190614f38565b33600081815260096020908152604091829020849055815188815290810189905290810185905260608101839052919250907fab0db1f1d6053f0c5e9e0333bd02e8e46a6996df63ddf355481cf233cea5ae279060800160405180910390a2505060016007555095945050505050565b6000546001600160a01b031633146115fd5760405162461bcd60e51b81526004016109be90614e77565b6001600160a01b0382166000908152600860205260409020546116765760405162461bcd60e51b815260206004820152602b60248201527f75706461746553747261746567794d617844656274506572486172766573743a60448201526a08085858dd1a5d985d195960aa1b60648201526084016109be565b6001600160a01b0382166000908152600860205260409020600301548110156116f45760405162461bcd60e51b815260206004820152602a60248201527f75706461746553747261746567794d617844656274506572486172766573743a604482015269040dad2dc407c40dac2f60b31b60648201526084016109be565b6001600160a01b03821660008181526008602052604090819020600401839055517fd57caa6337591e8c2fe908a4fb0bb9c4bcaf42a657ee20be2717ef81aa4f19aa906117449084815260200190565b60405180910390a25050565b600061175a613a9c565b83106117985760405162461bcd60e51b815260206004820152600d60248201526c0d2dcecc2d8d2c840d2dcc8caf609b1b60448201526064016109be565b600a83600581106117b957634e487b7160e01b600052603260045260246000fd5b015460405163ed882c2b60e01b8152600481018490526001600160a01b039091169063ed882c2b9060240160206040518083038186803b1580156117fc57600080fd5b505afa158015611810573d6000803e3d6000fd5b505050506040513d601f19601f82011682018060405250810190610eba9190614c70565b6000546001600160a01b0316331461185e5760405162461bcd60e51b81526004016109be90614e77565b6001600160a01b0381166118aa5760405162461bcd60e51b81526020600482015260136024820152720dad2cee4c2e8caa6e8e4c2e8cacef2744060f606b1b60448201526064016109be565b6001600160a01b03821660009081526008602052604090205461191e5760405162461bcd60e51b815260206004820152602660248201527f6d69677261746553747261746567793a206f6c6456657273696f6e20216163746044820152651a5d985d195960d21b60648201526084016109be565b6001600160a01b03821660009081526008602052604090206001015460ff166119955760405162461bcd60e51b815260206004820152602360248201527f6d69677261746553747261746567793a206f6c6456657273696f6e202161637460448201526269766560e81b60648201526084016109be565b6001600160a01b03811660009081526008602052604090205415611a095760405162461bcd60e51b815260206004820152602560248201527f6d69677261746553747261746567793a206e657756657273696f6e20616374696044820152641d985d195960da1b60648201526084016109be565b6001600160a01b03821660009081526008602052604081206002810154600f805492939192909190611a3c908490614f38565b90915550506001600160a01b0382811660008181526008602081905260408083204281556001808201805460ff19169091179055600287810154908201556003808801549082015560048088015481830155600580890154908301556006820185905560078201859055928101939093555163ce5494bb60e01b8152908101929092529185169063ce5494bb90602401600060405180830381600087803b158015611ae657600080fd5b505af1158015611afa573d6000803e3d6000fd5b505060006006850181905560038501819055600485018190556040516001600160a01b038088169450881692507feb6703dc9f9bdf90f637c0ef7b9dd7a08c095983cf29923c90d98f345dd95caf9190a3611b54846142b9565b60005b6005811015610d8457846001600160a01b0316600a8260058110611b8b57634e487b7160e01b600052603260045260246000fd5b01546001600160a01b03161415611be65783600a8260058110611bbe57634e487b7160e01b600052603260045260246000fd5b0180546001600160a01b0319166001600160a01b039290921691909117905550611bf8915050565b80611bf081615102565b915050611b57565b5050565b6000546001600160a01b03163314611c265760405162461bcd60e51b81526004016109be90614e77565b611c306000614340565b565b60026007541415611c555760405162461bcd60e51b81526004016109be90614eac565b60026007553360009081526001602052604090205460ff16611caa5760405162461bcd60e51b815260206004820152600e60248201526d1bdb9b1e481dda1a5d195b1a5cdd60921b60448201526064016109be565b611cb2613a9c565b8310611cf05760405162461bcd60e51b815260206004820152600d60248201526c0d2dcecc2d8d2c840d2dcc8caf609b1b60448201526064016109be565b6000600a8460058110611d1357634e487b7160e01b600052603260045260246000fd5b01546001600160a01b031690506000611d2a6138d0565b9050611d5c6040518060400160405280600f81526020016e1cdd1c985d1959de52185c9d995cdd608a1b815250614390565b60005b8451811015611f8e57611e50836001600160a01b0316637f0c8027878481518110611d9a57634e487b7160e01b600052603260045260246000fd5b6020026020010151878581518110611dc257634e487b7160e01b600052603260045260246000fd5b60200260200101516040518363ffffffff1660e01b8152600401611dfb9291906001600160a01b03929092168252602082015260400190565b60206040518083038186803b158015611e1357600080fd5b505afa158015611e27573d6000803e3d6000fd5b505050506040513d601f19601f82011682018060405250810190611e4b9190614c70565b6143d3565b826001600160a01b0316637f0c8027868381518110611e7f57634e487b7160e01b600052603260045260246000fd5b6020026020010151868481518110611ea757634e487b7160e01b600052603260045260246000fd5b60200260200101516040518363ffffffff1660e01b8152600401611ee09291906001600160a01b03929092168252602082015260400190565b60206040518083038186803b158015611ef857600080fd5b505afa158015611f0c573d6000803e3d6000fd5b505050506040513d601f19601f82011682018060405250810190611f309190614c70565b611f7c5760405162461bcd60e51b815260206004820152601a60248201527f7374726174656779486172766573743a2021616d6d436865636b00000000000060448201526064016109be565b80611f8681615102565b915050611d5f565b50816001600160a01b0316634641257d6040518163ffffffff1660e01b8152600401600060405180830381600087803b158015611fca57600080fd5b505af1158015611fde573d6000803e3d6000fd5b505050506000611fec6138d0565b90506000808284111561200e57612003838561508a565b90506001915061201f565b612018848461508a565b9050600091505b604080518315158152602081018390527f563299b3cea13d0c7eaf34be3ef046674da9c4515ccb7168d0b6b76ee51de999910160405180910390a150506001600755505050505050565b6000546001600160a01b031633146120935760405162461bcd60e51b81526004016109be90614e77565b6001600160a01b0381166120d95760405162461bcd60e51b815260206004820152600d60248201526c0aed0d2e8ca98d2e6e8744060f609b1b60448201526064016109be565b6001600160a01b038116600081815260016020526040808220805460ff19169055517f9e9499495e2efd848d33cb197bde94612c1ec36f30605b60d445511e056069e19190a250565b6000546001600160a01b0316331461214c5760405162461bcd60e51b81526004016109be90614e77565b610bb8811061219d5760405162461bcd60e51b815260206004820152601760248201527f7365745661756c744665653a205f666565203e2033302500000000000000000060448201526064016109be565b60168190556040518181527f01fa6949e7a4e70ebcf603589526b183cfd84c0023e87018cf99f1d661a72bbc90602001610e0a565b6060600680546108fa906150cd565b60006108e6613a9c565b3360009081526008602052604090206001015460ff166122595760405162461bcd60e51b815260206004820152602360248201527f7265766f6b6553747261746567793a207374726174656779206e6f742061637460448201526269766560e81b60648201526084016109be565b611c30336142b9565b336000908152600860205260408120600181015460ff166122ba5760405162461bcd60e51b81526020600482015260126024820152711c995c1bdc9d0e88085858dd1a5d985d195960721b60448201526064016109be565b7f00000000000000000000000000000000000000000000000000000000000000006122e58487614f38565b6040516370a0823160e01b81523360048201526001600160a01b038316906370a082319060240160206040518083038186803b15801561232457600080fd5b505afa158015612338573d6000803e3d6000fd5b505050506040513d601f19601f8201168201806040525081019061235c9190614ca8565b10156123c35760405162461bcd60e51b815260206004820152603060248201527f7265706f72743a2062616c616e636528737472617465677929203c205f67616960448201526f1b880ac817d919589d14185e5b595b9d60821b60648201526084016109be565b84156123d3576123d33386614024565b60006016541180156123e55750600086115b1561242457601554612422906001600160a01b03166124066004600a614fbf565b601654612413908a61506b565b61241d9190614f50565b614414565b505b8582600701546124349190614f38565b60078301556000612444336144ba565b90506000612452868361400e565b905080156124975780846006015461246a919061508a565b84600601819055508060106000828254612484919061508a565b909155506124949050818361508a565b91505b60006124a233613bf6565b905080156124dd57808560060160008282546124be9190614f38565b9250508190555080601060008282546124d79190614f38565b90915550505b60006124e9838b614f38565b9050818110156125175761251233612501838561508a565b6001600160a01b0388169190614256565b612540565b8181111561254057612540333061252e858561508a565b6001600160a01b03891692919061452d565b42601181905560058701556007860154600887015460068801546002890154604080518f8152602081018f90529081018890526060810194909452608084019290925260a083015260c0820184905260e082015233907fdd2147c7c786ce7a36d0010e0b96b77cafac9d0a6802f882d2c2255777d744b4906101000160405180910390a2600286015461264b57336001600160a01b031663efbb5cb06040518163ffffffff1660e01b815260040160206040518083038186803b15801561260657600080fd5b505afa15801561261a573d6000803e3d6000fd5b505050506040513d601f19601f8201168201806040525081019061263e9190614ca8565b9650505050505050610eba565b839650505050505050610eba565b3360009081526003602090815260408083206001600160a01b0386168452909152812054828110156126db5760405162461bcd60e51b815260206004820152602560248201527f45524332303a2064656372656173656420616c6c6f77616e63652062656c6f77604482015264207a65726f60d81b60648201526084016109be565b6126e83385858403613978565b5060019392505050565b600061098a338484613e07565b6000546001600160a01b031633146127295760405162461bcd60e51b81526004016109be90614e77565b600581111561278b5760405162461bcd60e51b815260206004820152602860248201527f7365745769746864726177616c51756575653a203e204d4158494d554d5f5354604482015267524154454749455360c01b60648201526084016109be565b60005b60058110156128a6578181106127e5576000600a82600581106127c157634e487b7160e01b600052603260045260246000fd5b0180546001600160a01b0319166001600160a01b039290921691909117905561285b565b82828281811061280557634e487b7160e01b600052603260045260246000fd5b905060200201602081019061281a9190614ab8565b600a826005811061283b57634e487b7160e01b600052603260045260246000fd5b0180546001600160a01b0319166001600160a01b03929092169190911790555b7fc24e80a5fd747b0bbfa6f9a1d7c50f98ab024556c97d3bd6a5cf651445e6b3dd838360405161288c929190614df6565b60405180910390a18061289e81615102565b91505061278e565b505050565b6000546001600160a01b03163314806128d357503360009081526001602052604090205460ff165b6129315760405162461bcd60e51b815260206004820152602960248201527f72656d6f7665537472617465677946726f6d51756575653a20216f776e65727c6044820152681dda1a5d195b1a5cdd60ba1b60648201526084016109be565b60005b6005811015611bf857816001600160a01b0316600a826005811061296857634e487b7160e01b600052603260045260246000fd5b01546001600160a01b031614156129fb576000600a826005811061299c57634e487b7160e01b600052603260045260246000fd5b0180546001600160a01b0319166001600160a01b03929092169190911790556129c3613afc565b6040516001600160a01b038316907fdb6049adb19dec12ff8b7422e722c7d155939bb8080c2ba3f9c8a3b0443c7ad490600090a25050565b80612a0581615102565b915050612934565b600060026007541415612a325760405162461bcd60e51b81526004016109be90614eac565b600260075581612a7c5760405162461bcd60e51b815260206004820152601560248201527406465706f7369743a205f616d6f756e7420213e203605c1b60448201526064016109be565b60135482612a886138d0565b612a929190614f38565b1115612ad95760405162461bcd60e51b815260206004820152601660248201527519195c1bdcda5d0e880859195c1bdcda5d131a5b5a5d60521b60448201526064016109be565b33600090815260096020526040902054821115612b385760405162461bcd60e51b815260206004820152601760248201527f6465706f7369743a202175736572416c6c6f77616e636500000000000000000060448201526064016109be565b6000612b443384614414565b90507f0000000000000000000000000000000000000000000000000000000000000000612b7c6001600160a01b03821633308761452d565b33600090815260096020526040812054612b9790869061508a565b336000818152600960209081526040918290208490558151898152908101879052908101839052919250907f4b2bcb0ca50531683faa51870e1018aa0d7272c7f2acc5399389b0c0493865d99060600160405180910390a25050600160075592915050565b6000546001600160a01b03163314612c265760405162461bcd60e51b81526004016109be90614e77565b7f00000000000000000000000000000000000000000000000000000000000000006001600160a01b0316826001600160a01b03161415612c9f5760405162461bcd60e51b81526020600482015260146024820152731cddd9595c0e881d1bdad95b880f4f481dd85b9d60621b60448201526064016109be565b6040516370a0823160e01b81523060048201526000906001600160a01b038416906370a082319060240160206040518083038186803b158015612ce157600080fd5b505afa158015612cf5573d6000803e3d6000fd5b505050506040513d601f19601f82011682018060405250810190612d199190614ca8565b90506128a66001600160a01b0384168383614256565b6000546001600160a01b03163314612d595760405162461bcd60e51b81526004016109be90614e77565b60138190556040518181527f90ab2effdb5b095500fdf80ad1d4c418e957095fb6e475ff03576beefc97cae790602001610e0a565b600061098e826144ba565b60006108e6336144ba565b600a8160058110612db457600080fd5b01546001600160a01b0316905081565b6040516370a0823160e01b815230600482015260009081906001600160a01b037f000000000000000000000000000000000000000000000000000000000000000016906370a082319060240160206040518083038186803b158015612e2857600080fd5b505afa158015612e3c573d6000803e3d6000fd5b505050506040513d601f19601f82011682018060405250810190612e609190614ca8565b905060005b612e6d613a9c565b811015612e9b57612e7d81614565565b612e879083614f38565b915080612e9381615102565b915050612e65565b50919050565b600061098e82613bf6565b600061098e8261460d565b6000546001600160a01b03163314612ee15760405162461bcd60e51b81526004016109be90614e77565b6001600160a01b038116612f275760405162461bcd60e51b815260206004820152600d60248201526c0aed0d2e8ca98d2e6e8744060f609b1b60448201526064016109be565b6001600160a01b0381166000818152600160208190526040808320805460ff1916909217909155517f4e3d8c117d484081f7268ed79cded71ad42979b92feb5f8f7f9824ac5cbfe3759190a250565b6001600160a01b03821660009081526008602052604090206001015460ff16612fd95760405162461bcd60e51b815260206004820152601560248201527473657444656274526174696f3a202161637469766560581b60448201526064016109be565b6000546001600160a01b031633148061300157503360009081526001602052604090205460ff165b61304d5760405162461bcd60e51b815260206004820152601860248201527f73657444656274526174696f3a202177686974656c697374000000000000000060448201526064016109be565b613057828261465b565b6130636004600a614fbf565b600f541115611bf85760405162461bcd60e51b815260206004820152601e60248201527f73657444656274526174696f3a2064656274526174696f203e2031303025000060448201526064016109be565b6000546001600160a01b031633146130de5760405162461bcd60e51b81526004016109be90614e77565b6001600160a01b0382166000908152600860205260409020546131575760405162461bcd60e51b815260206004820152602b60248201527f75706461746553747261746567794d696e44656274506572486172766573743a60448201526a08085858dd1a5d985d195960aa1b60648201526084016109be565b6001600160a01b0382166000908152600860205260409020600401548111156131d55760405162461bcd60e51b815260206004820152602a60248201527f75706461746553747261746567794d696e44656274506572486172766573743a604482015269040dad2dc407c40dac2f60b31b60648201526084016109be565b6001600160a01b03821660008181526008602052604090819020600301839055517f97d937f34d1eadd7b324f774a47165e95470edd473866a60d2162850ca578237906117449084815260200190565b6000546001600160a01b0316331461324f5760405162461bcd60e51b81526004016109be90614e77565b601580546001600160a01b0319166001600160a01b0383169081179091556040519081527f47d7c5d0e54dad44a791a37aaafbe848a5b4e4fb8c64462d67fa949c7e10622290602001610e0a565b6000546001600160a01b031633146132c75760405162461bcd60e51b81526004016109be90614e77565b6001600160a01b03811661332c5760405162461bcd60e51b815260206004820152602660248201527f4f776e61626c653a206e6577206f776e657220697320746865207a65726f206160448201526564647265737360d01b60648201526084016109be565b61333581614340565b50565b6000546001600160a01b031633148061336057503360009081526001602052604090205460ff165b6133ac5760405162461bcd60e51b815260206004820152601960248201527f73657444656274526174696f733a202177686974656c6973740000000000000060448201526064016109be565b60058151111561340a5760405162461bcd60e51b815260206004820152602360248201527f73657444656274526174696f733a203e204d4158494d554d5f5354524154454760448201526249455360e81b60648201526084016109be565b60008060005b600581101561349757600a816005811061343a57634e487b7160e01b600052603260045260246000fd5b01546001600160a01b031692508261345157613497565b83818151811061347157634e487b7160e01b600052603260045260246000fd5b60200260200101519150613485838361465b565b8061348f81615102565b915050613410565b506134a46004600a614fbf565b600f5411156128a65760405162461bcd60e51b815260206004820152601f60248201527f73657444656274526174696f733a2064656274526174696f203e20313030250060448201526064016109be565b6000546001600160a01b031633148061351d57503360009081526001602052604090205460ff165b6135755760405162461bcd60e51b8152602060048201526024808201527f6164645374726174656779546f51756575653a20216f776e65727c77686974656044820152631b1a5cdd60e21b60648201526084016109be565b6001600160a01b0381166000908152600860205260409020546135da5760405162461bcd60e51b815260206004820152601e60248201527f6164645374726174656779546f51756575653a2021616374697661746564000060448201526064016109be565b6000600a6135ea6001600561508a565b6005811061360857634e487b7160e01b600052603260045260246000fd5b01546001600160a01b0316146136605760405162461bcd60e51b815260206004820152601e60248201527f6164645374726174656779546f51756575653a2071756575652066756c6c000060448201526064016109be565b60005b6005811015613732576000600a826005811061368f57634e487b7160e01b600052603260045260246000fd5b01546001600160a01b03169050806136a75750613732565b806001600160a01b0316836001600160a01b0316141561371f5760405162461bcd60e51b815260206004820152602d60248201527f6164645374726174656779546f51756575653a20737472617465677920616c7260448201526c6561647920696e20717565756560981b60648201526084016109be565b508061372a81615102565b915050613663565b5080600a6137426001600561508a565b6005811061376057634e487b7160e01b600052603260045260246000fd5b0180546001600160a01b0319166001600160a01b0392909216919091179055613787613afc565b6040516001600160a01b038216907f9bc825e07ecd66a8b4fa4d5a982ca78e22dce2099ea4348ff8b5297b4afac26a90600090a250565b6014546001600160a01b031633146138285760405162461bcd60e51b815260206004820152602760248201527f73657455736572416c6c6f77616e63653a206d73672e73656e64657220213d206044820152663137bab731b2b960c91b60648201526084016109be565b6138537f0000000000000000000000000000000000000000000000000000000000000000600a614fb3565b61385d908261506b565b6001600160a01b03831660009081526009602052604081208054909190613885908490614f38565b9091555050604080516001600160a01b0384168152602081018390527f9028c777fc890e3be2f623e0bc932c51e841f34385fcd65571a2e744e5f63e8e910160405180910390a15050565b6010546040516370a0823160e01b8152306004820152600091906001600160a01b037f000000000000000000000000000000000000000000000000000000000000000016906370a082319060240160206040518083038186803b15801561393657600080fd5b505afa15801561394a573d6000803e3d6000fd5b505050506040513d601f19601f8201168201806040525081019061396e9190614ca8565b6108e69190614f38565b6001600160a01b0383166139da5760405162461bcd60e51b8152602060048201526024808201527f45524332303a20617070726f76652066726f6d20746865207a65726f206164646044820152637265737360e01b60648201526084016109be565b6001600160a01b038216613a3b5760405162461bcd60e51b815260206004820152602260248201527f45524332303a20617070726f766520746f20746865207a65726f206164647265604482015261737360f01b60648201526084016109be565b6001600160a01b0383811660008181526003602090815260408083209487168084529482529182902085905590518481527f8c5be1e5ebec7d5bd14f71427d1e84f3dd0314c0f7b2291e5b200ac8c7c3b925910160405180910390a3505050565b6000805b6005811015613af4576000600a8260058110613acc57634e487b7160e01b600052603260045260246000fd5b01546001600160a01b03161415613ae257919050565b80613aec81615102565b915050613aa0565b506005905090565b6000805b6005811015611bf8576000600a8260058110613b2c57634e487b7160e01b600052603260045260246000fd5b01546001600160a01b0316905080613b5057613b49600184614f38565b9250613be3565b8215613be35780600a613b63858561508a565b60058110613b8157634e487b7160e01b600052603260045260246000fd5b0180546001600160a01b0319166001600160a01b03929092169190911790556000600a8360058110613bc357634e487b7160e01b600052603260045260246000fd5b0180546001600160a01b0319166001600160a01b03929092169190911790555b5080613bee81615102565b915050613b00565b6001600160a01b038116600090815260086020818152604080842081516101208101835281548152600182015460ff161515938101939093526002810154918301919091526003810154606083015260048101546080830152600581015460a0830152600681015460c0830152600781015460e08301529091015461010082015281613c806138d0565b90506000613c906004600a614fbf565b82600f54613c9e919061506b565b613ca89190614f50565b6010549091506000613cbc6004600a614fbf565b848660400151613ccc919061506b565b613cd69190614f50565b60c08601516060870151608088015192935090917f00000000000000000000000000000000000000000000000000000000000000008385111580613d1a5750858711155b15613d30575060009a9950505050505050505050565b6000613d3c858761508a565b9050613d5181613d4c898b61508a565b61400e565b6040516370a0823160e01b8152306004820152909150613dd19082906001600160a01b038516906370a082319060240160206040518083038186803b158015613d9957600080fd5b505afa158015613dad573d6000803e3d6000fd5b505050506040513d601f19601f82011682018060405250810190613d4c9190614ca8565b905083811015613ded575060009b9a5050505050505050505050565b613df7818461400e565b9c9b505050505050505050505050565b6001600160a01b038316613e6b5760405162461bcd60e51b815260206004820152602560248201527f45524332303a207472616e736665722066726f6d20746865207a65726f206164604482015264647265737360d81b60648201526084016109be565b6001600160a01b038216613ecd5760405162461bcd60e51b815260206004820152602360248201527f45524332303a207472616e7366657220746f20746865207a65726f206164647260448201526265737360e81b60648201526084016109be565b6001600160a01b03831660009081526002602052604090205481811015613f455760405162461bcd60e51b815260206004820152602660248201527f45524332303a207472616e7366657220616d6f756e7420657863656564732062604482015265616c616e636560d01b60648201526084016109be565b6001600160a01b03808516600090815260026020526040808220858503905591851681529081208054849290613f7c908490614f38565b92505081905550826001600160a01b0316846001600160a01b03167fddf252ad1be2c89b69c2b068fc378daa952ba7f163c4a11628f55a4df523b3ef84604051613fc891815260200190565b60405180910390a35b50505050565b600080613fe360045490565b905080613ff1575090919050565b80613ffa6138d0565b614004908561506b565b610eba9190614f50565b600081831061401d5781610eba565b5090919050565b6001600160a01b038216600090815260086020526040902060068101548211156140905760405162461bcd60e51b815260206004820152601e60248201527f5f7265706f72744c6f73733a20746f74616c44656274203e3d206c6f7373000060448201526064016109be565b818160080160008282546140a49190614f38565b92505081905550818160060160008282546140bf919061508a565b9250508190555081601060008282546140d8919061508a565b9091555050505050565b6000806140ed6138d0565b905080156140ff5780613ffa60045490565b50600092915050565b6001600160a01b0382166141685760405162461bcd60e51b815260206004820152602160248201527f45524332303a206275726e2066726f6d20746865207a65726f206164647265736044820152607360f81b60648201526084016109be565b6001600160a01b038216600090815260026020526040902054818110156141dc5760405162461bcd60e51b815260206004820152602260248201527f45524332303a206275726e20616d6f756e7420657863656564732062616c616e604482015261636560f01b60648201526084016109be565b6001600160a01b038316600090815260026020526040812083830390556004805484929061420b90849061508a565b90915550506040518281526000906001600160a01b038516907fddf252ad1be2c89b69c2b068fc378daa952ba7f163c4a11628f55a4df523b3ef9060200160405180910390a3505050565b6040516001600160a01b0383166024820152604481018290526128a690849063a9059cbb60e01b906064015b60408051601f198184030181529190526020810180516001600160e01b03166001600160e01b0319909316929092179091526146ff565b6001600160a01b038116600090815260086020526040812060020154600f8054919290916142e890849061508a565b90915550506001600160a01b03811660008181526008602052604080822060028101839055600101805460ff19169055517fc3445f0d5a9ec5b7494384e18eb737b20cc1f3ab475b478e10b8739e4cd436e59190a250565b600080546001600160a01b038381166001600160a01b0319831681178455604051919092169283917f8be0079c531659141344cd1fd0a4f28419497f9722a3daafe3b4186f6b6457e09190a35050565b613335816040516024016143a49190614e44565b60408051601f198184030181529190526020810180516001600160e01b031663104c13eb60e21b1790526147d1565b60405181151560248201526133359060440160408051601f198184030181529190526020810180516001600160e01b03166332458eed60e01b1790526147d1565b6000808061442160045490565b9050801561444c576144316138d0565b61443b828661506b565b6144459190614f50565b9150614450565b8391505b816144a85760405162461bcd60e51b815260206004820152602260248201527f5f6973737565536861726573466f72416d6f756e743a20736861726573203d3d604482015261020360f41b60648201526084016109be565b6144b285836147f2565b509392505050565b6001600160a01b0381166000908152600860205260408120816144df6004600a614fbf565b6144e76138d0565b83600201546144f6919061506b565b6145009190614f50565b600683015490915081811161451a57506000949350505050565b614524828261508a565b95945050505050565b6040516001600160a01b0380851660248301528316604482015260648101829052613fd19085906323b872dd60e01b90608401614282565b6000600a826005811061458857634e487b7160e01b600052603260045260246000fd5b0160009054906101000a90046001600160a01b03166001600160a01b031663efbb5cb06040518163ffffffff1660e01b815260040160206040518083038186803b1580156145d557600080fd5b505afa1580156145e9573d6000803e3d6000fd5b505050506040513d601f19601f8201168201806040525081019061098e9190614ca8565b60008060086000600a856005811061463557634e487b7160e01b600052603260045260246000fd5b01546001600160a01b031681526020810191909152604001600020600601549392505050565b6001600160a01b038216600090815260086020526040812060020154600f80549192909161468a90849061508a565b90915550506001600160a01b0382166000908152600860205260408120600201829055600f80548392906146bf908490614f38565b90915550506040518181526001600160a01b038316907f20026fcfbe8b4c825d73835e062d785add204e5b6dc6c7672c82edfb48195e8190602001611744565b6000614754826040518060400160405280602081526020017f5361666545524332303a206c6f772d6c6576656c2063616c6c206661696c6564815250856001600160a01b03166148d19092919063ffffffff16565b8051909150156128a657808060200190518101906147729190614c70565b6128a65760405162461bcd60e51b815260206004820152602a60248201527f5361666545524332303a204552433230206f7065726174696f6e20646964206e6044820152691bdd081cdd58d8d9595960b21b60648201526084016109be565b80516a636f6e736f6c652e6c6f67602083016000808483855afa5050505050565b6001600160a01b0382166148485760405162461bcd60e51b815260206004820152601f60248201527f45524332303a206d696e7420746f20746865207a65726f20616464726573730060448201526064016109be565b806004600082825461485a9190614f38565b90915550506001600160a01b03821660009081526002602052604081208054839290614887908490614f38565b90915550506040518181526001600160a01b038316906000907fddf252ad1be2c89b69c2b068fc378daa952ba7f163c4a11628f55a4df523b3ef9060200160405180910390a35050565b60606148e084846000856148e8565b949350505050565b6060824710156149495760405162461bcd60e51b815260206004820152602660248201527f416464726573733a20696e73756666696369656e742062616c616e636520666f6044820152651c8818d85b1b60d21b60648201526084016109be565b843b6149975760405162461bcd60e51b815260206004820152601d60248201527f416464726573733a2063616c6c20746f206e6f6e2d636f6e747261637400000060448201526064016109be565b600080866001600160a01b031685876040516149b39190614dda565b60006040518083038185875af1925050503d80600081146149f0576040519150601f19603f3d011682016040523d82523d6000602084013e6149f5565b606091505b5091509150614a05828286614a10565b979650505050505050565b60608315614a1f575081610eba565b825115614a2f5782518084602001fd5b8160405162461bcd60e51b81526004016109be9190614e44565b600082601f830112614a59578081fd5b81356020614a6e614a6983614f14565b614ee3565b80838252828201915082860187848660051b8901011115614a8d578586fd5b855b85811015614aab57813584529284019290840190600101614a8f565b5090979650505050505050565b600060208284031215614ac9578081fd5b8135610eba81615149565b600060208284031215614ae5578081fd5b8151610eba81615149565b60008060408385031215614b02578081fd5b8235614b0d81615149565b91506020830135614b1d81615149565b809150509250929050565b600080600060608486031215614b3c578081fd5b8335614b4781615149565b92506020840135614b5781615149565b929592945050506040919091013590565b60008060408385031215614b7a578182fd5b8235614b8581615149565b946020939093013593505050565b60008060008060808587031215614ba8578081fd5b8435614bb381615149565b966020860135965060408601359560600135945092505050565b60008060208385031215614bdf578182fd5b823567ffffffffffffffff80821115614bf6578384fd5b818501915085601f830112614c09578384fd5b813581811115614c17578485fd5b8660208260051b8501011115614c2b578485fd5b60209290920196919550909350505050565b600060208284031215614c4e578081fd5b813567ffffffffffffffff811115614c64578182fd5b6148e084828501614a49565b600060208284031215614c81578081fd5b81518015158114610eba578182fd5b600060208284031215614ca1578081fd5b5035919050565b600060208284031215614cb9578081fd5b5051919050565b600080600060608486031215614cd4578283fd5b8335925060208085013567ffffffffffffffff80821115614cf3578485fd5b818701915087601f830112614d06578485fd5b8135614d14614a6982614f14565b8082825285820191508585018b878560051b8801011115614d33578889fd5b8895505b83861015614d5e578035614d4a81615149565b835260019590950194918601918601614d37565b50965050506040870135925080831115614d76578384fd5b5050614d8486828701614a49565b9150509250925092565b60008060408385031215614da0578182fd5b50508035926020909101359150565b600080600060608486031215614dc3578081fd5b505081359360208301359350604090920135919050565b60008251614dec8184602087016150a1565b9190910192915050565b60208082528181018390526000908460408401835b86811015614e39578235614e1e81615149565b6001600160a01b031682529183019190830190600101614e0b565b509695505050505050565b6020815260008251806020840152614e638160408501602087016150a1565b601f01601f19169190910160400192915050565b6020808252818101527f4f776e61626c653a2063616c6c6572206973206e6f7420746865206f776e6572604082015260600190565b6020808252601f908201527f5265656e7472616e637947756172643a207265656e7472616e742063616c6c00604082015260600190565b604051601f8201601f1916810167ffffffffffffffff81118282101715614f0c57614f0c615133565b604052919050565b600067ffffffffffffffff821115614f2e57614f2e615133565b5060051b60200190565b60008219821115614f4b57614f4b61511d565b500190565b600082614f6b57634e487b7160e01b81526012600452602481fd5b500490565b600181815b80851115614fab578160001904821115614f9157614f9161511d565b80851615614f9e57918102915b93841c9390800290614f75565b509250929050565b6000610eba8383614fca565b6000610eba60ff8416835b600082614fd95750600161098e565b81614fe65750600061098e565b8160018114614ffc576002811461500657615022565b600191505061098e565b60ff8411156150175761501761511d565b50506001821b61098e565b5060208310610133831016604e8410600b8410161715615045575081810a61098e565b61504f8383614f70565b80600019048211156150635761506361511d565b029392505050565b60008160001904831182151516156150855761508561511d565b500290565b60008282101561509c5761509c61511d565b500390565b60005b838110156150bc5781810151838201526020016150a4565b83811115613fd15750506000910152565b600181811c908216806150e157607f821691505b60208210811415612e9b57634e487b7160e01b600052602260045260246000fd5b60006000198214156151165761511661511d565b5060010190565b634e487b7160e01b600052601160045260246000fd5b634e487b7160e01b600052604160045260246000fd5b6001600160a01b038116811461333557600080fdfea2646970667358221220f7abd55aae7b79cae1525089e59a69ecc975640341672158f68f5230a0cf641964736f6c63430008040033",
  "linkReferences": {},
  "deployedLinkReferences": {}
}